{
  "address": "0xC0370e0b5C1A41D447BDdA655079A1B977C71aA9",
  "abi": [
    {
      "inputs": [
        {
          "internalType": "uint8",
          "name": "range",
          "type": "uint8"
        },
        {
          "internalType": "address",
          "name": "tokenAddress",
          "type": "address"
        }
      ],
      "stateMutability": "nonpayable",
      "type": "constructor"
    },
    {
      "anonymous": false,
      "inputs": [
        {
          "indexed": true,
          "internalType": "address",
          "name": "player",
          "type": "address"
        },
        {
          "indexed": false,
          "internalType": "uint256",
          "name": "allowance",
          "type": "uint256"
        },
        {
          "indexed": false,
          "internalType": "uint256",
          "name": "prize",
          "type": "uint256"
        },
        {
          "indexed": false,
          "internalType": "uint256",
          "name": "guess",
          "type": "uint256"
        },
        {
          "indexed": false,
          "internalType": "string",
          "name": "msg",
          "type": "string"
        }
      ],
      "name": "GuessResult",
      "type": "event"
    },
    {
      "stateMutability": "payable",
      "type": "fallback"
    },
    {
      "inputs": [
        {
          "internalType": "uint8",
          "name": "guess",
          "type": "uint8"
        }
      ],
      "name": "attempt",
      "outputs": [],
      "stateMutability": "payable",
      "type": "function"
    },
    {
      "inputs": [],
      "name": "close",
      "outputs": [],
      "stateMutability": "payable",
      "type": "function"
    },
    {
      "inputs": [],
      "name": "erc20",
      "outputs": [
        {
          "internalType": "contract IERC20",
          "name": "",
          "type": "address"
        }
      ],
      "stateMutability": "view",
      "type": "function"
    },
    {
      "inputs": [],
      "name": "guessRange",
      "outputs": [
        {
          "internalType": "uint8",
          "name": "",
          "type": "uint8"
        }
      ],
      "stateMutability": "view",
      "type": "function"
    },
    {
      "inputs": [],
      "name": "prizePool",
      "outputs": [
        {
          "internalType": "uint256",
          "name": "",
          "type": "uint256"
        }
      ],
      "stateMutability": "view",
      "type": "function"
    },
    {
      "stateMutability": "payable",
      "type": "receive"
    }
  ],
  "transactionHash": "0xccac6cf485021230e1c318ec51cd23f92fe45ba77af8d2017ab3eb2f8e4fb0f2",
  "args": [
    100,
    "0xeDa66Cc53bd2f26896f6Ba6b736B1Ca325DE04eF"
  ],
  "numDeployments": 1,
  "solcInputHash": "7e94a0cd4a7a99de881deb842e71006c",
  "bytecode": "0x60806040523480156200001157600080fd5b5060405162001ee238038062001ee28339818101604052810190620000379190620003fe565b336000806101000a81548173ffffffffffffffffffffffffffffffffffffffff021916908373ffffffffffffffffffffffffffffffffffffffff16021790555081600360006101000a81548160ff021916908360ff16021790555080600360016101000a81548173ffffffffffffffffffffffffffffffffffffffff021916908373ffffffffffffffffffffffffffffffffffffffff160217905550620000e3620000eb60201b60201c565b5050620006e0565b6000600360019054906101000a900473ffffffffffffffffffffffffffffffffffffffff1673ffffffffffffffffffffffffffffffffffffffff166370a08231306040518263ffffffff1660e01b81526004016200014a919062000456565b602060405180830381865afa15801562000168573d6000803e3d6000fd5b505050506040513d601f19601f820116820180604052508101906200018e9190620004ae565b14620001d1576040517f08c379a0000000000000000000000000000000000000000000000000000000008152600401620001c89062000567565b60405180910390fd5b60005b6001805490508161ffff1610156200029a5760006002600060018461ffff168154811062000207576200020662000589565b5b9060005260206000200160009054906101000a900473ffffffffffffffffffffffffffffffffffffffff1673ffffffffffffffffffffffffffffffffffffffff1673ffffffffffffffffffffffffffffffffffffffff16815260200190815260200160002060006101000a81548160ff021916908360ff16021790555080806200029190620005f5565b915050620001d4565b5060016000620002ab919062000314565b600360009054906101000a900460ff1660ff164244604051602001620002d392919062000649565b6040516020818303038152906040528051906020012060001c620002f89190620006a8565b600060146101000a81548160ff021916908360ff160217905550565b508054600082559060005260206000209081019062000334919062000337565b50565b5b808211156200035257600081600090555060010162000338565b5090565b600080fd5b600060ff82169050919050565b62000373816200035b565b81146200037f57600080fd5b50565b600081519050620003938162000368565b92915050565b600073ffffffffffffffffffffffffffffffffffffffff82169050919050565b6000620003c68262000399565b9050919050565b620003d881620003b9565b8114620003e457600080fd5b50565b600081519050620003f881620003cd565b92915050565b6000806040838503121562000418576200041762000356565b5b6000620004288582860162000382565b92505060206200043b85828601620003e7565b9150509250929050565b6200045081620003b9565b82525050565b60006020820190506200046d600083018462000445565b92915050565b6000819050919050565b620004888162000473565b81146200049457600080fd5b50565b600081519050620004a8816200047d565b92915050565b600060208284031215620004c757620004c662000356565b5b6000620004d78482850162000497565b91505092915050565b600082825260208201905092915050565b7f42616c616e6365206d757374206265207a65726f20746f207365742061206e6560008201527f77207461726765742e0000000000000000000000000000000000000000000000602082015250565b60006200054f602983620004e0565b91506200055c82620004f1565b604082019050919050565b60006020820190508181036000830152620005828162000540565b9050919050565b7f4e487b7100000000000000000000000000000000000000000000000000000000600052603260045260246000fd5b7f4e487b7100000000000000000000000000000000000000000000000000000000600052601160045260246000fd5b600061ffff82169050919050565b60006200060282620005e7565b915061ffff8203620006195762000618620005b8565b5b600182019050919050565b6000819050919050565b620006436200063d8262000473565b62000624565b82525050565b60006200065782856200062e565b6020820191506200066982846200062e565b6020820191508190509392505050565b7f4e487b7100000000000000000000000000000000000000000000000000000000600052601260045260246000fd5b6000620006b58262000473565b9150620006c28362000473565b925082620006d557620006d462000679565b5b828206905092915050565b6117f280620006f06000396000f3fe60806040526004361061004e5760003560e01c806343d726d614610057578063719ce73e14610061578063785e9e861461008c57806380d739ad146100b7578063c5c88421146100e257610055565b3661005557005b005b61005f6100fe565b005b34801561006d57600080fd5b506100766101c5565b6040516100839190610de4565b60405180910390f35b34801561009857600080fd5b506100a1610268565b6040516100ae9190610e7e565b60405180910390f35b3480156100c357600080fd5b506100cc61028e565b6040516100d99190610eb5565b60405180910390f35b6100fc60048036038101906100f79190610f01565b6102a1565b005b60008054906101000a900473ffffffffffffffffffffffffffffffffffffffff1673ffffffffffffffffffffffffffffffffffffffff163373ffffffffffffffffffffffffffffffffffffffff161461018c576040517f08c379a000000000000000000000000000000000000000000000000000000000815260040161018390610fb1565b60405180910390fd5b60008054906101000a900473ffffffffffffffffffffffffffffffffffffffff1673ffffffffffffffffffffffffffffffffffffffff16ff5b6000600360019054906101000a900473ffffffffffffffffffffffffffffffffffffffff1673ffffffffffffffffffffffffffffffffffffffff166370a08231306040518263ffffffff1660e01b81526004016102229190610ff2565b602060405180830381865afa15801561023f573d6000803e3d6000fd5b505050506040513d601f19601f820116820180604052508101906102639190611039565b905090565b600360019054906101000a900473ffffffffffffffffffffffffffffffffffffffff1681565b600360009054906101000a900460ff1681565b670de0b6b3a7640000600360019054906101000a900473ffffffffffffffffffffffffffffffffffffffff1673ffffffffffffffffffffffffffffffffffffffff1663dd62ed3e33306040518363ffffffff1660e01b8152600401610307929190611066565b602060405180830381865afa158015610324573d6000803e3d6000fd5b505050506040513d601f19601f820116820180604052508101906103489190611039565b1015610389576040517f08c379a0000000000000000000000000000000000000000000000000000000008152600401610380906110db565b60405180910390fd5b6001339080600181540180825580915050600190039060005260206000200160009091909190916101000a81548173ffffffffffffffffffffffffffffffffffffffff021916908373ffffffffffffffffffffffffffffffffffffffff160217905550600360019054906101000a900473ffffffffffffffffffffffffffffffffffffffff1673ffffffffffffffffffffffffffffffffffffffff166323b872dd3330670de0b6b3a76400006040518463ffffffff1660e01b815260040161045393929190611136565b6020604051808303816000875af1158015610472573d6000803e3d6000fd5b505050506040513d601f19601f8201168201806040525081019061049691906111a5565b50600060149054906101000a900460ff1660ff168160ff160361065e573373ffffffffffffffffffffffffffffffffffffffff167fb436f43c9325bbfddaa50de2c4442c4fb0d2337445c798cd11a4c1717290f57d600360019054906101000a900473ffffffffffffffffffffffffffffffffffffffff1673ffffffffffffffffffffffffffffffffffffffff1663dd62ed3e33306040518363ffffffff1660e01b8152600401610548929190611066565b602060405180830381865afa158015610565573d6000803e3d6000fd5b505050506040513d601f19601f820116820180604052508101906105899190611039565b6105916101c5565b846040516105a19392919061124f565b60405180910390a2600360019054906101000a900473ffffffffffffffffffffffffffffffffffffffff1673ffffffffffffffffffffffffffffffffffffffff1663a9059cbb336105f06101c5565b6040518363ffffffff1660e01b815260040161060d929190611299565b6020604051808303816000875af115801561062c573d6000803e3d6000fd5b505050506040513d601f19601f8201168201806040525081019061065091906111a5565b50610659610b79565b610b76565b6000600260003373ffffffffffffffffffffffffffffffffffffffff1673ffffffffffffffffffffffffffffffffffffffff16815260200190815260200160002060009054906101000a900460ff16905060008060149054906101000a900460ff1660ff168360ff16116106ec5782600060149054906101000a900460ff166106e791906112f1565b610708565b600060149054906101000a900460ff168361070791906112f1565b5b905080600260003373ffffffffffffffffffffffffffffffffffffffff1673ffffffffffffffffffffffffffffffffffffffff16815260200190815260200160002060006101000a81548160ff021916908360ff16021790555060008260ff1603610868573373ffffffffffffffffffffffffffffffffffffffff167fb436f43c9325bbfddaa50de2c4442c4fb0d2337445c798cd11a4c1717290f57d600360019054906101000a900473ffffffffffffffffffffffffffffffffffffffff1673ffffffffffffffffffffffffffffffffffffffff1663dd62ed3e33306040518363ffffffff1660e01b8152600401610802929190611066565b602060405180830381865afa15801561081f573d6000803e3d6000fd5b505050506040513d601f19601f820116820180604052508101906108439190611039565b61084b6101c5565b8660405161085b93929190611398565b60405180910390a2610b73565b8160ff168160ff161015610971573373ffffffffffffffffffffffffffffffffffffffff167fb436f43c9325bbfddaa50de2c4442c4fb0d2337445c798cd11a4c1717290f57d600360019054906101000a900473ffffffffffffffffffffffffffffffffffffffff1673ffffffffffffffffffffffffffffffffffffffff1663dd62ed3e33306040518363ffffffff1660e01b815260040161090b929190611066565b602060405180830381865afa158015610928573d6000803e3d6000fd5b505050506040513d601f19601f8201168201806040525081019061094c9190611039565b6109546101c5565b8660405161096493929190611454565b60405180910390a2610b72565b8160ff168160ff161115610a7a573373ffffffffffffffffffffffffffffffffffffffff167fb436f43c9325bbfddaa50de2c4442c4fb0d2337445c798cd11a4c1717290f57d600360019054906101000a900473ffffffffffffffffffffffffffffffffffffffff1673ffffffffffffffffffffffffffffffffffffffff1663dd62ed3e33306040518363ffffffff1660e01b8152600401610a14929190611066565b602060405180830381865afa158015610a31573d6000803e3d6000fd5b505050506040513d601f19601f82011682018060405250810190610a559190611039565b610a5d6101c5565b86604051610a6d93929190611510565b60405180910390a2610b71565b3373ffffffffffffffffffffffffffffffffffffffff167fb436f43c9325bbfddaa50de2c4442c4fb0d2337445c798cd11a4c1717290f57d600360019054906101000a900473ffffffffffffffffffffffffffffffffffffffff1673ffffffffffffffffffffffffffffffffffffffff1663dd62ed3e33306040518363ffffffff1660e01b8152600401610b0f929190611066565b602060405180830381865afa158015610b2c573d6000803e3d6000fd5b505050506040513d601f19601f82011682018060405250810190610b509190611039565b610b586101c5565b86604051610b68939291906115cc565b60405180910390a25b5b5b50505b50565b6000600360019054906101000a900473ffffffffffffffffffffffffffffffffffffffff1673ffffffffffffffffffffffffffffffffffffffff166370a08231306040518263ffffffff1660e01b8152600401610bd69190610ff2565b602060405180830381865afa158015610bf3573d6000803e3d6000fd5b505050506040513d601f19601f82011682018060405250810190610c179190611039565b14610c57576040517f08c379a0000000000000000000000000000000000000000000000000000000008152600401610c4e90611688565b60405180910390fd5b60005b6001805490508161ffff161015610d195760006002600060018461ffff1681548110610c8957610c886116a8565b5b9060005260206000200160009054906101000a900473ffffffffffffffffffffffffffffffffffffffff1673ffffffffffffffffffffffffffffffffffffffff1673ffffffffffffffffffffffffffffffffffffffff16815260200190815260200160002060006101000a81548160ff021916908360ff1602179055508080610d11906116e5565b915050610c5a565b5060016000610d289190610d8d565b600360009054906101000a900460ff1660ff164244604051602001610d4e929190611730565b6040516020818303038152906040528051906020012060001c610d71919061178b565b600060146101000a81548160ff021916908360ff160217905550565b5080546000825590600052602060002090810190610dab9190610dae565b50565b5b80821115610dc7576000816000905550600101610daf565b5090565b6000819050919050565b610dde81610dcb565b82525050565b6000602082019050610df96000830184610dd5565b92915050565b600073ffffffffffffffffffffffffffffffffffffffff82169050919050565b6000819050919050565b6000610e44610e3f610e3a84610dff565b610e1f565b610dff565b9050919050565b6000610e5682610e29565b9050919050565b6000610e6882610e4b565b9050919050565b610e7881610e5d565b82525050565b6000602082019050610e936000830184610e6f565b92915050565b600060ff82169050919050565b610eaf81610e99565b82525050565b6000602082019050610eca6000830184610ea6565b92915050565b600080fd5b610ede81610e99565b8114610ee957600080fd5b50565b600081359050610efb81610ed5565b92915050565b600060208284031215610f1757610f16610ed0565b5b6000610f2584828501610eec565b91505092915050565b600082825260208201905092915050565b7f4f6e6c79206f776e65722063616e2063616c6c20746869732066756e6374696f60008201527f6e2e000000000000000000000000000000000000000000000000000000000000602082015250565b6000610f9b602283610f2e565b9150610fa682610f3f565b604082019050919050565b60006020820190508181036000830152610fca81610f8e565b9050919050565b6000610fdc82610dff565b9050919050565b610fec81610fd1565b82525050565b60006020820190506110076000830184610fe3565b92915050565b61101681610dcb565b811461102157600080fd5b50565b6000815190506110338161100d565b92915050565b60006020828403121561104f5761104e610ed0565b5b600061105d84828501611024565b91505092915050565b600060408201905061107b6000830185610fe3565b6110886020830184610fe3565b9392505050565b7f436865636b2074686520746f6b656e20616c6c6f77616e63652e000000000000600082015250565b60006110c5601a83610f2e565b91506110d08261108f565b602082019050919050565b600060208201905081810360008301526110f4816110b8565b9050919050565b6000819050919050565b600061112061111b611116846110fb565b610e1f565b610dcb565b9050919050565b61113081611105565b82525050565b600060608201905061114b6000830186610fe3565b6111586020830185610fe3565b6111656040830184611127565b949350505050565b60008115159050919050565b6111828161116d565b811461118d57600080fd5b50565b60008151905061119f81611179565b92915050565b6000602082840312156111bb576111ba610ed0565b5b60006111c984828501611190565b91505092915050565b60006111ed6111e86111e384610e99565b610e1f565b610dcb565b9050919050565b6111fd816111d2565b82525050565b7f636f72726563742120596f7520776f6e20746865207072697a65206f66000000600082015250565b6000611239601d83610f2e565b915061124482611203565b602082019050919050565b60006080820190506112646000830186610dd5565b6112716020830185610dd5565b61127e60408301846111f4565b818103606083015261128f8161122c565b9050949350505050565b60006040820190506112ae6000830185610fe3565b6112bb6020830184610dd5565b9392505050565b7f4e487b7100000000000000000000000000000000000000000000000000000000600052601160045260246000fd5b60006112fc82610e99565b915061130783610e99565b9250828203905060ff8111156113205761131f6112c2565b5b92915050565b7f77726f6e672c2074727920616761696e2120546865207072697a65206973206e60008201527f6f77000000000000000000000000000000000000000000000000000000000000602082015250565b6000611382602283610f2e565b915061138d82611326565b604082019050919050565b60006080820190506113ad6000830186610dd5565b6113ba6020830185610dd5565b6113c760408301846111f4565b81810360608301526113d881611375565b9050949350505050565b7f77726f6e672c20627574207761726d65722120546865207072697a652069732060008201527f6e6f770000000000000000000000000000000000000000000000000000000000602082015250565b600061143e602383610f2e565b9150611449826113e2565b604082019050919050565b60006080820190506114696000830186610dd5565b6114766020830185610dd5565b61148360408301846111f4565b818103606083015261149481611431565b9050949350505050565b7f77726f6e672c20616e6420636f6c6465722120546865207072697a652069732060008201527f6e6f770000000000000000000000000000000000000000000000000000000000602082015250565b60006114fa602383610f2e565b91506115058261149e565b604082019050919050565b60006080820190506115256000830186610dd5565b6115326020830185610dd5565b61153f60408301846111f4565b8181036060830152611550816114ed565b9050949350505050565b7f77726f6e672c206e656974686572207761726d6572206f7220636f6c6465722160008201527f20546865207072697a65206973206e6f77000000000000000000000000000000602082015250565b60006115b6603183610f2e565b91506115c18261155a565b604082019050919050565b60006080820190506115e16000830186610dd5565b6115ee6020830185610dd5565b6115fb60408301846111f4565b818103606083015261160c816115a9565b9050949350505050565b7f42616c616e6365206d757374206265207a65726f20746f207365742061206e6560008201527f77207461726765742e0000000000000000000000000000000000000000000000602082015250565b6000611672602983610f2e565b915061167d82611616565b604082019050919050565b600060208201905081810360008301526116a181611665565b9050919050565b7f4e487b7100000000000000000000000000000000000000000000000000000000600052603260045260246000fd5b600061ffff82169050919050565b60006116f0826116d7565b915061ffff8203611704576117036112c2565b5b600182019050919050565b6000819050919050565b61172a61172582610dcb565b61170f565b82525050565b600061173c8285611719565b60208201915061174c8284611719565b6020820191508190509392505050565b7f4e487b7100000000000000000000000000000000000000000000000000000000600052601260045260246000fd5b600061179682610dcb565b91506117a183610dcb565b9250826117b1576117b061175c565b5b82820690509291505056fea26469706673582212208297c499682a22a419052e24d595bc45f4ea67b7124663883e523e1fb2d961cd64736f6c63430008110033",
  "devdoc": {
    "kind": "dev",
    "methods": {},
    "version": 1
  },
  "userdoc": {
    "kind": "user",
    "methods": {},
    "version": 1
  },
  "storageLayout": {
    "storage": [
      {
        "astId": 329,
        "contract": "contracts/Guess.sol:Guess",
        "label": "owner",
        "offset": 0,
        "slot": "0",
        "type": "t_address_payable"
      },
      {
        "astId": 331,
        "contract": "contracts/Guess.sol:Guess",
        "label": "_target",
        "offset": 20,
        "slot": "0",
        "type": "t_uint8"
      },
      {
        "astId": 334,
        "contract": "contracts/Guess.sol:Guess",
        "label": "_attemptAddresses",
        "offset": 0,
        "slot": "1",
        "type": "t_array(t_address)dyn_storage"
      },
      {
        "astId": 338,
        "contract": "contracts/Guess.sol:Guess",
        "label": "_prevMisses",
        "offset": 0,
        "slot": "2",
        "type": "t_mapping(t_address,t_uint8)"
      },
      {
        "astId": 340,
        "contract": "contracts/Guess.sol:Guess",
        "label": "guessRange",
        "offset": 0,
        "slot": "3",
        "type": "t_uint8"
      },
      {
        "astId": 343,
        "contract": "contracts/Guess.sol:Guess",
        "label": "erc20",
        "offset": 1,
        "slot": "3",
        "type": "t_contract(IERC20)747"
      }
    ],
    "types": {
      "t_address": {
        "encoding": "inplace",
        "label": "address",
        "numberOfBytes": "20"
      },
      "t_address_payable": {
        "encoding": "inplace",
        "label": "address payable",
        "numberOfBytes": "20"
      },
      "t_array(t_address)dyn_storage": {
        "base": "t_address",
        "encoding": "dynamic_array",
        "label": "address[]",
        "numberOfBytes": "32"
      },
      "t_contract(IERC20)747": {
        "encoding": "inplace",
        "label": "contract IERC20",
        "numberOfBytes": "20"
      },
      "t_mapping(t_address,t_uint8)": {
        "encoding": "mapping",
        "key": "t_address",
        "label": "mapping(address => uint8)",
        "numberOfBytes": "32",
        "value": "t_uint8"
      },
      "t_uint8": {
        "encoding": "inplace",
        "label": "uint8",
        "numberOfBytes": "1"
      }
    }
  }
}