{
  "_format": "hh-sol-artifact-1",
  "contractName": "Battleship",
  "sourceName": "contracts/Battleship.sol",
  "abi": [
    {
      "anonymous": false,
      "inputs": [
        {
          "indexed": false,
          "internalType": "address",
          "name": "player",
          "type": "address"
        },
        {
          "indexed": false,
          "internalType": "uint256",
          "name": "position",
          "type": "uint256"
        }
      ],
      "name": "InvalidShipPlacement",
      "type": "event"
    },
    {
      "anonymous": false,
      "inputs": [
        {
          "indexed": false,
          "internalType": "address",
          "name": "player",
          "type": "address"
        },
        {
          "indexed": false,
          "internalType": "uint256",
          "name": "position",
          "type": "uint256"
        },
        {
          "indexed": false,
          "internalType": "bool",
          "name": "isVertical",
          "type": "bool"
        }
      ],
      "name": "PlayerAddsABoat",
      "type": "event"
    },
    {
      "anonymous": false,
      "inputs": [
        {
          "indexed": false,
          "internalType": "address",
          "name": "player",
          "type": "address"
        }
      ],
      "name": "PlayerJoined",
      "type": "event"
    },
    {
      "anonymous": false,
      "inputs": [
        {
          "indexed": false,
          "internalType": "address",
          "name": "player",
          "type": "address"
        },
        {
          "indexed": false,
          "internalType": "uint256",
          "name": "position",
          "type": "uint256"
        },
        {
          "indexed": false,
          "internalType": "bool",
          "name": "hit",
          "type": "bool"
        }
      ],
      "name": "PlayerShoots",
      "type": "event"
    },
    {
      "anonymous": false,
      "inputs": [
        {
          "indexed": false,
          "internalType": "address",
          "name": "player",
          "type": "address"
        }
      ],
      "name": "ShipSunk",
      "type": "event"
    },
    {
      "inputs": [],
      "name": "GRID_SIZE",
      "outputs": [
        {
          "internalType": "uint256",
          "name": "",
          "type": "uint256"
        }
      ],
      "stateMutability": "view",
      "type": "function"
    },
    {
      "inputs": [],
      "name": "MAX_SHIPS_PER_PLAYER",
      "outputs": [
        {
          "internalType": "uint256",
          "name": "",
          "type": "uint256"
        }
      ],
      "stateMutability": "view",
      "type": "function"
    },
    {
      "inputs": [],
      "name": "SHIP_SIZE",
      "outputs": [
        {
          "internalType": "uint256",
          "name": "",
          "type": "uint256"
        }
      ],
      "stateMutability": "view",
      "type": "function"
    },
    {
      "inputs": [
        {
          "components": [
            {
              "internalType": "uint256",
              "name": "position",
              "type": "uint256"
            },
            {
              "internalType": "bool",
              "name": "isVertical",
              "type": "bool"
            },
            {
              "internalType": "bool[3]",
              "name": "hits",
              "type": "bool[3]"
            },
            {
              "internalType": "address",
              "name": "owner",
              "type": "address"
            },
            {
              "internalType": "uint256",
              "name": "shipID",
              "type": "uint256"
            }
          ],
          "internalType": "struct Battleship.Ship",
          "name": "ship",
          "type": "tuple"
        },
        {
          "internalType": "uint256",
          "name": "position",
          "type": "uint256"
        }
      ],
      "name": "ShipHit",
      "outputs": [
        {
          "internalType": "bool",
          "name": "",
          "type": "bool"
        }
      ],
      "stateMutability": "nonpayable",
      "type": "function"
    },
    {
      "inputs": [
        {
          "internalType": "uint256",
          "name": "position",
          "type": "uint256"
        }
      ],
      "name": "Shoot",
      "outputs": [
        {
          "internalType": "bool",
          "name": "",
          "type": "bool"
        }
      ],
      "stateMutability": "payable",
      "type": "function"
    },
    {
      "inputs": [],
      "name": "getActivePlayerCount",
      "outputs": [
        {
          "internalType": "uint256",
          "name": "",
          "type": "uint256"
        }
      ],
      "stateMutability": "view",
      "type": "function"
    },
    {
      "inputs": [
        {
          "internalType": "address",
          "name": "player",
          "type": "address"
        }
      ],
      "name": "isPlayerAlive",
      "outputs": [
        {
          "internalType": "bool",
          "name": "",
          "type": "bool"
        }
      ],
      "stateMutability": "view",
      "type": "function"
    },
    {
      "inputs": [
        {
          "components": [
            {
              "internalType": "uint256",
              "name": "position",
              "type": "uint256"
            },
            {
              "internalType": "bool",
              "name": "isVertical",
              "type": "bool"
            },
            {
              "internalType": "bool[3]",
              "name": "hits",
              "type": "bool[3]"
            },
            {
              "internalType": "address",
              "name": "owner",
              "type": "address"
            },
            {
              "internalType": "uint256",
              "name": "shipID",
              "type": "uint256"
            }
          ],
          "internalType": "struct Battleship.Ship",
          "name": "ship",
          "type": "tuple"
        }
      ],
      "name": "isShipDestroyed",
      "outputs": [
        {
          "internalType": "bool",
          "name": "",
          "type": "bool"
        }
      ],
      "stateMutability": "pure",
      "type": "function"
    },
    {
      "inputs": [
        {
          "internalType": "uint256",
          "name": "position",
          "type": "uint256"
        },
        {
          "internalType": "bool",
          "name": "isVertical",
          "type": "bool"
        }
      ],
      "name": "isValidPlacement",
      "outputs": [
        {
          "internalType": "bool",
          "name": "",
          "type": "bool"
        }
      ],
      "stateMutability": "view",
      "type": "function"
    },
    {
      "inputs": [
        {
          "internalType": "uint256",
          "name": "position",
          "type": "uint256"
        },
        {
          "internalType": "bool",
          "name": "isVertical",
          "type": "bool"
        }
      ],
      "name": "joinGame",
      "outputs": [],
      "stateMutability": "nonpayable",
      "type": "function"
    },
    {
      "inputs": [
        {
          "internalType": "address",
          "name": "",
          "type": "address"
        }
      ],
      "name": "players",
      "outputs": [
        {
          "internalType": "uint256",
          "name": "shipCount",
          "type": "uint256"
        },
        {
          "internalType": "bool",
          "name": "isAlive",
          "type": "bool"
        }
      ],
      "stateMutability": "view",
      "type": "function"
    },
    {
      "inputs": [],
      "name": "resetGame",
      "outputs": [],
      "stateMutability": "nonpayable",
      "type": "function"
    },
    {
      "inputs": [],
      "name": "shipIDCounter",
      "outputs": [
        {
          "internalType": "uint256",
          "name": "",
          "type": "uint256"
        }
      ],
      "stateMutability": "view",
      "type": "function"
    },
    {
      "inputs": [
        {
          "internalType": "uint256",
          "name": "",
          "type": "uint256"
        }
      ],
      "name": "ships",
      "outputs": [
        {
          "internalType": "uint256",
          "name": "position",
          "type": "uint256"
        },
        {
          "internalType": "bool",
          "name": "isVertical",
          "type": "bool"
        },
        {
          "internalType": "address",
          "name": "owner",
          "type": "address"
        },
        {
          "internalType": "uint256",
          "name": "shipID",
          "type": "uint256"
        }
      ],
      "stateMutability": "view",
      "type": "function"
    },
    {
      "inputs": [
        {
          "internalType": "uint256",
          "name": "",
          "type": "uint256"
        }
      ],
      "name": "world",
      "outputs": [
        {
          "internalType": "uint256",
          "name": "",
          "type": "uint256"
        }
      ],
      "stateMutability": "view",
      "type": "function"
    }
  ],
  "bytecode": "0x6080604052600160005534801561001557600080fd5b5061139c806100256000396000f3fe6080604052600436106100e85760003560e01c80635f374ece1161008a578063bb47221911610059578063bb47221914610333578063e28c2b461461034a578063e2eb41ff14610375578063f565ee8d146103b3576100e8565b80635f374ece146102655780637fc4eda8146102a257806394517b90146102cd578063b1af54be146102f6576100e8565b80633ef4f4ca116100c65780633ef4f4ca146101925780633f2698b2146101cf5780634d4e8dfa146101fa5780634e347f2a1461023a576100e8565b806323ce9e94146100ed578063246588f11461011857806325d5f5f014610155575b600080fd5b3480156100f957600080fd5b506101026103e3565b60405161010f9190610c74565b60405180910390f35b34801561012457600080fd5b5061013f600480360381019061013a9190610cfc565b6103e8565b60405161014c9190610d44565b60405180910390f35b34801561016157600080fd5b5061017c60048036038101906101779190610f8f565b6103ef565b6040516101899190610d44565b60405180910390f35b34801561019e57600080fd5b506101b960048036038101906101b49190610fd0565b6104bd565b6040516101c69190610c74565b60405180910390f35b3480156101db57600080fd5b506101e46104d5565b6040516101f19190610c74565b60405180910390f35b34801561020657600080fd5b50610221600480360381019061021c9190610fd0565b6104db565b604051610231949392919061100c565b60405180910390f35b34801561024657600080fd5b5061024f610538565b60405161025c9190610c74565b60405180910390f35b34801561027157600080fd5b5061028c60048036038101906102879190611051565b61053d565b6040516102999190610d44565b60405180910390f35b3480156102ae57600080fd5b506102b761059c565b6040516102c49190610c74565b60405180910390f35b3480156102d957600080fd5b506102f460048036038101906102ef919061107e565b6105a1565b005b34801561030257600080fd5b5061031d6004803603810190610318919061107e565b610835565b60405161032a9190610d44565b60405180910390f35b34801561033f57600080fd5b5061034861099c565b005b34801561035657600080fd5b5061035f61099e565b60405161036c9190610c74565b60405180910390f35b34801561038157600080fd5b5061039c60048036038101906103979190610cfc565b6109a3565b6040516103aa9291906110be565b60405180910390f35b6103cd60048036038101906103c89190610fd0565b6109d4565b6040516103da9190610d44565b60405180910390f35b600381565b6000919050565b600080600090508360200151156104235760148460000151846104129190611116565b61041c9190611179565b9050610436565b8360000151836104339190611116565b90505b60018460400151826003811061044f5761044e6111aa565b5b6020020190151590811515815250506104678461053d565b156104b1577ff6efc0f0f7270e6470ae421c2c220a2930f349c2e85e2cff70701cb5ee7b1de2846060015160405161049f91906111d9565b60405180910390a160019150506104b7565b60009150505b92915050565b60026020528060005260406000206000915090505481565b60005481565b60036020528060005260406000206000915090508060000154908060010160009054906101000a900460ff16908060030160009054906101000a900473ffffffffffffffffffffffffffffffffffffffff16908060040154905084565b600090565b600080600090505b8260400151506003811015610591578260400151816003811061056b5761056a6111aa565b5b602002015161057e576000915050610597565b8080610589906111f4565b915050610545565b50600190505b919050565b601481565b6105ab8282610835565b6105ea576040517f08c379a00000000000000000000000000000000000000000000000000000000081526004016105e190611299565b60405180910390fd5b60008054905060016000546105ff91906112b9565b60008190555060006040518060a00160405280858152602001841515815260200160405180606001604052806000151515158152602001600015151515815260200160001515151581525081526020013373ffffffffffffffffffffffffffffffffffffffff1681526020018381525090508060036000805481526020019081526020016000206000820151816000015560208201518160010160006101000a81548160ff0219169083151502179055506040820151816002019060036106c7929190610ba5565b5060608201518160030160006101000a81548173ffffffffffffffffffffffffffffffffffffffff021916908373ffffffffffffffffffffffffffffffffffffffff16021790555060808201518160040155905050821561079357816002600086815260200190815260200160002081905550816002600060148761074c91906112b9565b81526020019081526020016000208190555081600260006014600261077191906112ed565b8761077c91906112b9565b8152602001908152602001600020819055506107f4565b81600260008681526020019081526020016000208190555081600260006001876107bd91906112b9565b81526020019081526020016000208190555081600260006002876107e191906112b9565b8152602001908152602001600020819055505b7f9aa67a02ba8b9aedf25b60316883c55eaa0cb17631c416719d042bd062e3d9e33385856040516108279392919061132f565b60405180910390a150505050565b6000818015610873575060148061084c91906112ed565b60146001600361085c9190611116565b61086691906112ed565b8461087191906112b9565b115b156108815760009050610996565b811580156108b2575060148061089791906112ed565b600160036108a59190611116565b846108b091906112b9565b115b156108c05760009050610996565b811561092f5760005b600160036108d79190611116565b81101561092d576000600260006014846108f191906112ed565b876108fc91906112b9565b8152602001908152602001600020541461091a576000915050610996565b8080610925906111f4565b9150506108c9565b505b816109915760005b600160036109459190611116565b81101561098f57600060026000838761095e91906112b9565b8152602001908152602001600020541461097c576000915050610996565b8080610987906111f4565b915050610937565b505b600190505b92915050565b565b600181565b60016020528060005260406000206000915090508060050154908060060160009054906101000a900460ff16905082565b600080600260008481526020019081526020016000205414610b5f577fd835fa23a35044202ce28b2770eb0fbb01103f3e9aa24b13f8b198ebe285a68933836001604051610a249392919061132f565b60405180910390a1610b5560036000600260008681526020019081526020016000205481526020019081526020016000206040518060a0016040529081600082015481526020016001820160009054906101000a900460ff1615151515815260200160028201600380602002604051908101604052809291908260038015610ae6576020028201916000905b82829054906101000a900460ff16151581526020019060010190602082600001049283019260010382029150808411610ab05790505b505050505081526020016003820160009054906101000a900473ffffffffffffffffffffffffffffffffffffffff1673ffffffffffffffffffffffffffffffffffffffff1673ffffffffffffffffffffffffffffffffffffffff168152602001600482015481525050836103ef565b5060019050610ba0565b7fd835fa23a35044202ce28b2770eb0fbb01103f3e9aa24b13f8b198ebe285a68933836000604051610b939392919061132f565b60405180910390a1600090505b919050565b826003601f01602090048101928215610c2d5791602002820160005b83821115610bfe57835183826101000a81548160ff0219169083151502179055509260200192600101602081600001049283019260010302610bc1565b8015610c2b5782816101000a81549060ff0219169055600101602081600001049283019260010302610bfe565b505b509050610c3a9190610c3e565b5090565b5b80821115610c57576000816000905550600101610c3f565b5090565b6000819050919050565b610c6e81610c5b565b82525050565b6000602082019050610c896000830184610c65565b92915050565b6000604051905090565b600080fd5b600073ffffffffffffffffffffffffffffffffffffffff82169050919050565b6000610cc982610c9e565b9050919050565b610cd981610cbe565b8114610ce457600080fd5b50565b600081359050610cf681610cd0565b92915050565b600060208284031215610d1257610d11610c99565b5b6000610d2084828501610ce7565b91505092915050565b60008115159050919050565b610d3e81610d29565b82525050565b6000602082019050610d596000830184610d35565b92915050565b600080fd5b6000601f19601f8301169050919050565b7f4e487b7100000000000000000000000000000000000000000000000000000000600052604160045260246000fd5b610dad82610d64565b810181811067ffffffffffffffff82111715610dcc57610dcb610d75565b5b80604052505050565b6000610ddf610c8f565b9050610deb8282610da4565b919050565b610df981610c5b565b8114610e0457600080fd5b50565b600081359050610e1681610df0565b92915050565b610e2581610d29565b8114610e3057600080fd5b50565b600081359050610e4281610e1c565b92915050565b600080fd5b600067ffffffffffffffff821115610e6857610e67610d75565b5b602082029050919050565b600080fd5b6000610e8b610e8684610e4d565b610dd5565b90508060208402830185811115610ea557610ea4610e73565b5b835b81811015610ece5780610eba8882610e33565b845260208401935050602081019050610ea7565b5050509392505050565b600082601f830112610eed57610eec610e48565b5b6003610efa848285610e78565b91505092915050565b600060e08284031215610f1957610f18610d5f565b5b610f2360a0610dd5565b90506000610f3384828501610e07565b6000830152506020610f4784828501610e33565b6020830152506040610f5b84828501610ed8565b60408301525060a0610f6f84828501610ce7565b60608301525060c0610f8384828501610e07565b60808301525092915050565b6000806101008385031215610fa757610fa6610c99565b5b6000610fb585828601610f03565b92505060e0610fc685828601610e07565b9150509250929050565b600060208284031215610fe657610fe5610c99565b5b6000610ff484828501610e07565b91505092915050565b61100681610cbe565b82525050565b60006080820190506110216000830187610c65565b61102e6020830186610d35565b61103b6040830185610ffd565b6110486060830184610c65565b95945050505050565b600060e0828403121561106757611066610c99565b5b600061107584828501610f03565b91505092915050565b6000806040838503121561109557611094610c99565b5b60006110a385828601610e07565b92505060206110b485828601610e33565b9150509250929050565b60006040820190506110d36000830185610c65565b6110e06020830184610d35565b9392505050565b7f4e487b7100000000000000000000000000000000000000000000000000000000600052601160045260246000fd5b600061112182610c5b565b915061112c83610c5b565b9250828203905081811115611144576111436110e7565b5b92915050565b7f4e487b7100000000000000000000000000000000000000000000000000000000600052601260045260246000fd5b600061118482610c5b565b915061118f83610c5b565b92508261119f5761119e61114a565b5b828204905092915050565b7f4e487b7100000000000000000000000000000000000000000000000000000000600052603260045260246000fd5b60006020820190506111ee6000830184610ffd565b92915050565b60006111ff82610c5b565b91507fffffffffffffffffffffffffffffffffffffffffffffffffffffffffffffffff8203611231576112306110e7565b5b600182019050919050565b600082825260208201905092915050565b7f496e76616c6964207368697020706f736974696f6e0000000000000000000000600082015250565b600061128360158361123c565b915061128e8261124d565b602082019050919050565b600060208201905081810360008301526112b281611276565b9050919050565b60006112c482610c5b565b91506112cf83610c5b565b92508282019050808211156112e7576112e66110e7565b5b92915050565b60006112f882610c5b565b915061130383610c5b565b925082820261131181610c5b565b91508282048414831517611328576113276110e7565b5b5092915050565b60006060820190506113446000830186610ffd565b6113516020830185610c65565b61135e6040830184610d35565b94935050505056fea26469706673582212200ba93cf9e5b762c5802d6b229ec0cc7e53b945b3648f1e41fd6425a37e6e710564736f6c63430008130033",
  "linkReferences": {},
  "deployedLinkReferences": {}
}