{
  "contracts/Battleship.sol": {
    "Battleship": {
      "abi": [
        {
          "anonymous": false,
          "inputs": [
            {
              "indexed": false,
              "internalType": "address",
              "name": "player",
              "type": "address"
            },
            {
              "indexed": false,
              "internalType": "uint256",
              "name": "position",
              "type": "uint256"
            }
          ],
          "name": "InvalidShipPlacement",
          "type": "event"
        },
        {
          "anonymous": false,
          "inputs": [
            {
              "indexed": false,
              "internalType": "address",
              "name": "player",
              "type": "address"
            },
            {
              "indexed": false,
              "internalType": "uint256",
              "name": "position",
              "type": "uint256"
            },
            {
              "indexed": false,
              "internalType": "bool",
              "name": "isVertical",
              "type": "bool"
            }
          ],
          "name": "PlayerAddsABoat",
          "type": "event"
        },
        {
          "anonymous": false,
          "inputs": [
            {
              "indexed": false,
              "internalType": "address",
              "name": "player",
              "type": "address"
            }
          ],
          "name": "PlayerJoined",
          "type": "event"
        },
        {
          "anonymous": false,
          "inputs": [
            {
              "indexed": false,
              "internalType": "address",
              "name": "player",
              "type": "address"
            },
            {
              "indexed": false,
              "internalType": "uint256",
              "name": "position",
              "type": "uint256"
            },
            {
              "indexed": false,
              "internalType": "bool",
              "name": "hit",
              "type": "bool"
            }
          ],
          "name": "PlayerShoots",
          "type": "event"
        },
        {
          "anonymous": false,
          "inputs": [
            {
              "indexed": false,
              "internalType": "address",
              "name": "player",
              "type": "address"
            }
          ],
          "name": "ShipSunk",
          "type": "event"
        },
        {
          "inputs": [],
          "name": "GRID_SIZE",
          "outputs": [
            {
              "internalType": "uint256",
              "name": "",
              "type": "uint256"
            }
          ],
          "stateMutability": "view",
          "type": "function"
        },
        {
          "inputs": [],
          "name": "MAX_SHIPS_PER_PLAYER",
          "outputs": [
            {
              "internalType": "uint256",
              "name": "",
              "type": "uint256"
            }
          ],
          "stateMutability": "view",
          "type": "function"
        },
        {
          "inputs": [],
          "name": "SHIP_SIZE",
          "outputs": [
            {
              "internalType": "uint256",
              "name": "",
              "type": "uint256"
            }
          ],
          "stateMutability": "view",
          "type": "function"
        },
        {
          "inputs": [
            {
              "components": [
                {
                  "internalType": "uint256",
                  "name": "position",
                  "type": "uint256"
                },
                {
                  "internalType": "bool",
                  "name": "isVertical",
                  "type": "bool"
                },
                {
                  "internalType": "bool[3]",
                  "name": "hits",
                  "type": "bool[3]"
                },
                {
                  "internalType": "address",
                  "name": "owner",
                  "type": "address"
                },
                {
                  "internalType": "uint256",
                  "name": "shipID",
                  "type": "uint256"
                }
              ],
              "internalType": "struct Battleship.Ship",
              "name": "ship",
              "type": "tuple"
            },
            {
              "internalType": "uint256",
              "name": "position",
              "type": "uint256"
            }
          ],
          "name": "ShipHit",
          "outputs": [
            {
              "internalType": "bool",
              "name": "",
              "type": "bool"
            }
          ],
          "stateMutability": "nonpayable",
          "type": "function"
        },
        {
          "inputs": [
            {
              "internalType": "uint256",
              "name": "position",
              "type": "uint256"
            }
          ],
          "name": "Shoot",
          "outputs": [
            {
              "internalType": "bool",
              "name": "",
              "type": "bool"
            }
          ],
          "stateMutability": "payable",
          "type": "function"
        },
        {
          "inputs": [],
          "name": "getActivePlayerCount",
          "outputs": [
            {
              "internalType": "uint256",
              "name": "",
              "type": "uint256"
            }
          ],
          "stateMutability": "view",
          "type": "function"
        },
        {
          "inputs": [
            {
              "internalType": "address",
              "name": "player",
              "type": "address"
            }
          ],
          "name": "isPlayerAlive",
          "outputs": [
            {
              "internalType": "bool",
              "name": "",
              "type": "bool"
            }
          ],
          "stateMutability": "view",
          "type": "function"
        },
        {
          "inputs": [
            {
              "components": [
                {
                  "internalType": "uint256",
                  "name": "position",
                  "type": "uint256"
                },
                {
                  "internalType": "bool",
                  "name": "isVertical",
                  "type": "bool"
                },
                {
                  "internalType": "bool[3]",
                  "name": "hits",
                  "type": "bool[3]"
                },
                {
                  "internalType": "address",
                  "name": "owner",
                  "type": "address"
                },
                {
                  "internalType": "uint256",
                  "name": "shipID",
                  "type": "uint256"
                }
              ],
              "internalType": "struct Battleship.Ship",
              "name": "ship",
              "type": "tuple"
            }
          ],
          "name": "isShipDestroyed",
          "outputs": [
            {
              "internalType": "bool",
              "name": "",
              "type": "bool"
            }
          ],
          "stateMutability": "pure",
          "type": "function"
        },
        {
          "inputs": [
            {
              "internalType": "uint256",
              "name": "position",
              "type": "uint256"
            },
            {
              "internalType": "bool",
              "name": "isVertical",
              "type": "bool"
            }
          ],
          "name": "isValidPlacement",
          "outputs": [
            {
              "internalType": "bool",
              "name": "",
              "type": "bool"
            }
          ],
          "stateMutability": "view",
          "type": "function"
        },
        {
          "inputs": [
            {
              "internalType": "uint256",
              "name": "position",
              "type": "uint256"
            },
            {
              "internalType": "bool",
              "name": "isVertical",
              "type": "bool"
            }
          ],
          "name": "joinGame",
          "outputs": [],
          "stateMutability": "nonpayable",
          "type": "function"
        },
        {
          "inputs": [
            {
              "internalType": "address",
              "name": "",
              "type": "address"
            }
          ],
          "name": "players",
          "outputs": [
            {
              "internalType": "uint256",
              "name": "shipCount",
              "type": "uint256"
            },
            {
              "internalType": "bool",
              "name": "isAlive",
              "type": "bool"
            }
          ],
          "stateMutability": "view",
          "type": "function"
        },
        {
          "inputs": [],
          "name": "resetGame",
          "outputs": [],
          "stateMutability": "nonpayable",
          "type": "function"
        },
        {
          "inputs": [],
          "name": "shipIDCounter",
          "outputs": [
            {
              "internalType": "uint256",
              "name": "",
              "type": "uint256"
            }
          ],
          "stateMutability": "view",
          "type": "function"
        },
        {
          "inputs": [
            {
              "internalType": "uint256",
              "name": "",
              "type": "uint256"
            }
          ],
          "name": "ships",
          "outputs": [
            {
              "internalType": "uint256",
              "name": "position",
              "type": "uint256"
            },
            {
              "internalType": "bool",
              "name": "isVertical",
              "type": "bool"
            },
            {
              "internalType": "address",
              "name": "owner",
              "type": "address"
            },
            {
              "internalType": "uint256",
              "name": "shipID",
              "type": "uint256"
            }
          ],
          "stateMutability": "view",
          "type": "function"
        },
        {
          "inputs": [
            {
              "internalType": "uint256",
              "name": "",
              "type": "uint256"
            }
          ],
          "name": "world",
          "outputs": [
            {
              "internalType": "uint256",
              "name": "",
              "type": "uint256"
            }
          ],
          "stateMutability": "view",
          "type": "function"
        }
      ],
      "evm": {
        "bytecode": {
          "linkReferences": {},
          "object": "6080604052600160005534801561001557600080fd5b5061139c806100256000396000f3fe6080604052600436106100e85760003560e01c80635f374ece1161008a578063bb47221911610059578063bb47221914610333578063e28c2b461461034a578063e2eb41ff14610375578063f565ee8d146103b3576100e8565b80635f374ece146102655780637fc4eda8146102a257806394517b90146102cd578063b1af54be146102f6576100e8565b80633ef4f4ca116100c65780633ef4f4ca146101925780633f2698b2146101cf5780634d4e8dfa146101fa5780634e347f2a1461023a576100e8565b806323ce9e94146100ed578063246588f11461011857806325d5f5f014610155575b600080fd5b3480156100f957600080fd5b506101026103e3565b60405161010f9190610c74565b60405180910390f35b34801561012457600080fd5b5061013f600480360381019061013a9190610cfc565b6103e8565b60405161014c9190610d44565b60405180910390f35b34801561016157600080fd5b5061017c60048036038101906101779190610f8f565b6103ef565b6040516101899190610d44565b60405180910390f35b34801561019e57600080fd5b506101b960048036038101906101b49190610fd0565b6104bd565b6040516101c69190610c74565b60405180910390f35b3480156101db57600080fd5b506101e46104d5565b6040516101f19190610c74565b60405180910390f35b34801561020657600080fd5b50610221600480360381019061021c9190610fd0565b6104db565b604051610231949392919061100c565b60405180910390f35b34801561024657600080fd5b5061024f610538565b60405161025c9190610c74565b60405180910390f35b34801561027157600080fd5b5061028c60048036038101906102879190611051565b61053d565b6040516102999190610d44565b60405180910390f35b3480156102ae57600080fd5b506102b761059c565b6040516102c49190610c74565b60405180910390f35b3480156102d957600080fd5b506102f460048036038101906102ef919061107e565b6105a1565b005b34801561030257600080fd5b5061031d6004803603810190610318919061107e565b610835565b60405161032a9190610d44565b60405180910390f35b34801561033f57600080fd5b5061034861099c565b005b34801561035657600080fd5b5061035f61099e565b60405161036c9190610c74565b60405180910390f35b34801561038157600080fd5b5061039c60048036038101906103979190610cfc565b6109a3565b6040516103aa9291906110be565b60405180910390f35b6103cd60048036038101906103c89190610fd0565b6109d4565b6040516103da9190610d44565b60405180910390f35b600381565b6000919050565b600080600090508360200151156104235760148460000151846104129190611116565b61041c9190611179565b9050610436565b8360000151836104339190611116565b90505b60018460400151826003811061044f5761044e6111aa565b5b6020020190151590811515815250506104678461053d565b156104b1577ff6efc0f0f7270e6470ae421c2c220a2930f349c2e85e2cff70701cb5ee7b1de2846060015160405161049f91906111d9565b60405180910390a160019150506104b7565b60009150505b92915050565b60026020528060005260406000206000915090505481565b60005481565b60036020528060005260406000206000915090508060000154908060010160009054906101000a900460ff16908060030160009054906101000a900473ffffffffffffffffffffffffffffffffffffffff16908060040154905084565b600090565b600080600090505b8260400151506003811015610591578260400151816003811061056b5761056a6111aa565b5b602002015161057e576000915050610597565b8080610589906111f4565b915050610545565b50600190505b919050565b601481565b6105ab8282610835565b6105ea576040517f08c379a00000000000000000000000000000000000000000000000000000000081526004016105e190611299565b60405180910390fd5b60008054905060016000546105ff91906112b9565b60008190555060006040518060a00160405280858152602001841515815260200160405180606001604052806000151515158152602001600015151515815260200160001515151581525081526020013373ffffffffffffffffffffffffffffffffffffffff1681526020018381525090508060036000805481526020019081526020016000206000820151816000015560208201518160010160006101000a81548160ff0219169083151502179055506040820151816002019060036106c7929190610ba5565b5060608201518160030160006101000a81548173ffffffffffffffffffffffffffffffffffffffff021916908373ffffffffffffffffffffffffffffffffffffffff16021790555060808201518160040155905050821561079357816002600086815260200190815260200160002081905550816002600060148761074c91906112b9565b81526020019081526020016000208190555081600260006014600261077191906112ed565b8761077c91906112b9565b8152602001908152602001600020819055506107f4565b81600260008681526020019081526020016000208190555081600260006001876107bd91906112b9565b81526020019081526020016000208190555081600260006002876107e191906112b9565b8152602001908152602001600020819055505b7f9aa67a02ba8b9aedf25b60316883c55eaa0cb17631c416719d042bd062e3d9e33385856040516108279392919061132f565b60405180910390a150505050565b6000818015610873575060148061084c91906112ed565b60146001600361085c9190611116565b61086691906112ed565b8461087191906112b9565b115b156108815760009050610996565b811580156108b2575060148061089791906112ed565b600160036108a59190611116565b846108b091906112b9565b115b156108c05760009050610996565b811561092f5760005b600160036108d79190611116565b81101561092d576000600260006014846108f191906112ed565b876108fc91906112b9565b8152602001908152602001600020541461091a576000915050610996565b8080610925906111f4565b9150506108c9565b505b816109915760005b600160036109459190611116565b81101561098f57600060026000838761095e91906112b9565b8152602001908152602001600020541461097c576000915050610996565b8080610987906111f4565b915050610937565b505b600190505b92915050565b565b600181565b60016020528060005260406000206000915090508060050154908060060160009054906101000a900460ff16905082565b600080600260008481526020019081526020016000205414610b5f577fd835fa23a35044202ce28b2770eb0fbb01103f3e9aa24b13f8b198ebe285a68933836001604051610a249392919061132f565b60405180910390a1610b5560036000600260008681526020019081526020016000205481526020019081526020016000206040518060a0016040529081600082015481526020016001820160009054906101000a900460ff1615151515815260200160028201600380602002604051908101604052809291908260038015610ae6576020028201916000905b82829054906101000a900460ff16151581526020019060010190602082600001049283019260010382029150808411610ab05790505b505050505081526020016003820160009054906101000a900473ffffffffffffffffffffffffffffffffffffffff1673ffffffffffffffffffffffffffffffffffffffff1673ffffffffffffffffffffffffffffffffffffffff168152602001600482015481525050836103ef565b5060019050610ba0565b7fd835fa23a35044202ce28b2770eb0fbb01103f3e9aa24b13f8b198ebe285a68933836000604051610b939392919061132f565b60405180910390a1600090505b919050565b826003601f01602090048101928215610c2d5791602002820160005b83821115610bfe57835183826101000a81548160ff0219169083151502179055509260200192600101602081600001049283019260010302610bc1565b8015610c2b5782816101000a81549060ff0219169055600101602081600001049283019260010302610bfe565b505b509050610c3a9190610c3e565b5090565b5b80821115610c57576000816000905550600101610c3f565b5090565b6000819050919050565b610c6e81610c5b565b82525050565b6000602082019050610c896000830184610c65565b92915050565b6000604051905090565b600080fd5b600073ffffffffffffffffffffffffffffffffffffffff82169050919050565b6000610cc982610c9e565b9050919050565b610cd981610cbe565b8114610ce457600080fd5b50565b600081359050610cf681610cd0565b92915050565b600060208284031215610d1257610d11610c99565b5b6000610d2084828501610ce7565b91505092915050565b60008115159050919050565b610d3e81610d29565b82525050565b6000602082019050610d596000830184610d35565b92915050565b600080fd5b6000601f19601f8301169050919050565b7f4e487b7100000000000000000000000000000000000000000000000000000000600052604160045260246000fd5b610dad82610d64565b810181811067ffffffffffffffff82111715610dcc57610dcb610d75565b5b80604052505050565b6000610ddf610c8f565b9050610deb8282610da4565b919050565b610df981610c5b565b8114610e0457600080fd5b50565b600081359050610e1681610df0565b92915050565b610e2581610d29565b8114610e3057600080fd5b50565b600081359050610e4281610e1c565b92915050565b600080fd5b600067ffffffffffffffff821115610e6857610e67610d75565b5b602082029050919050565b600080fd5b6000610e8b610e8684610e4d565b610dd5565b90508060208402830185811115610ea557610ea4610e73565b5b835b81811015610ece5780610eba8882610e33565b845260208401935050602081019050610ea7565b5050509392505050565b600082601f830112610eed57610eec610e48565b5b6003610efa848285610e78565b91505092915050565b600060e08284031215610f1957610f18610d5f565b5b610f2360a0610dd5565b90506000610f3384828501610e07565b6000830152506020610f4784828501610e33565b6020830152506040610f5b84828501610ed8565b60408301525060a0610f6f84828501610ce7565b60608301525060c0610f8384828501610e07565b60808301525092915050565b6000806101008385031215610fa757610fa6610c99565b5b6000610fb585828601610f03565b92505060e0610fc685828601610e07565b9150509250929050565b600060208284031215610fe657610fe5610c99565b5b6000610ff484828501610e07565b91505092915050565b61100681610cbe565b82525050565b60006080820190506110216000830187610c65565b61102e6020830186610d35565b61103b6040830185610ffd565b6110486060830184610c65565b95945050505050565b600060e0828403121561106757611066610c99565b5b600061107584828501610f03565b91505092915050565b6000806040838503121561109557611094610c99565b5b60006110a385828601610e07565b92505060206110b485828601610e33565b9150509250929050565b60006040820190506110d36000830185610c65565b6110e06020830184610d35565b9392505050565b7f4e487b7100000000000000000000000000000000000000000000000000000000600052601160045260246000fd5b600061112182610c5b565b915061112c83610c5b565b9250828203905081811115611144576111436110e7565b5b92915050565b7f4e487b7100000000000000000000000000000000000000000000000000000000600052601260045260246000fd5b600061118482610c5b565b915061118f83610c5b565b92508261119f5761119e61114a565b5b828204905092915050565b7f4e487b7100000000000000000000000000000000000000000000000000000000600052603260045260246000fd5b60006020820190506111ee6000830184610ffd565b92915050565b60006111ff82610c5b565b91507fffffffffffffffffffffffffffffffffffffffffffffffffffffffffffffffff8203611231576112306110e7565b5b600182019050919050565b600082825260208201905092915050565b7f496e76616c6964207368697020706f736974696f6e0000000000000000000000600082015250565b600061128360158361123c565b915061128e8261124d565b602082019050919050565b600060208201905081810360008301526112b281611276565b9050919050565b60006112c482610c5b565b91506112cf83610c5b565b92508282019050808211156112e7576112e66110e7565b5b92915050565b60006112f882610c5b565b915061130383610c5b565b925082820261131181610c5b565b91508282048414831517611328576113276110e7565b5b5092915050565b60006060820190506113446000830186610ffd565b6113516020830185610c65565b61135e6040830184610d35565b94935050505056fea26469706673582212200ba93cf9e5b762c5802d6b229ec0cc7e53b945b3648f1e41fd6425a37e6e710564736f6c63430008130033",
          "opcodes": "PUSH1 0x80 PUSH1 0x40 MSTORE PUSH1 0x1 PUSH1 0x0 SSTORE CALLVALUE DUP1 ISZERO PUSH2 0x15 JUMPI PUSH1 0x0 DUP1 REVERT JUMPDEST POP PUSH2 0x139C DUP1 PUSH2 0x25 PUSH1 0x0 CODECOPY PUSH1 0x0 RETURN INVALID PUSH1 0x80 PUSH1 0x40 MSTORE PUSH1 0x4 CALLDATASIZE LT PUSH2 0xE8 JUMPI PUSH1 0x0 CALLDATALOAD PUSH1 0xE0 SHR DUP1 PUSH4 0x5F374ECE GT PUSH2 0x8A JUMPI DUP1 PUSH4 0xBB472219 GT PUSH2 0x59 JUMPI DUP1 PUSH4 0xBB472219 EQ PUSH2 0x333 JUMPI DUP1 PUSH4 0xE28C2B46 EQ PUSH2 0x34A JUMPI DUP1 PUSH4 0xE2EB41FF EQ PUSH2 0x375 JUMPI DUP1 PUSH4 0xF565EE8D EQ PUSH2 0x3B3 JUMPI PUSH2 0xE8 JUMP JUMPDEST DUP1 PUSH4 0x5F374ECE EQ PUSH2 0x265 JUMPI DUP1 PUSH4 0x7FC4EDA8 EQ PUSH2 0x2A2 JUMPI DUP1 PUSH4 0x94517B90 EQ PUSH2 0x2CD JUMPI DUP1 PUSH4 0xB1AF54BE EQ PUSH2 0x2F6 JUMPI PUSH2 0xE8 JUMP JUMPDEST DUP1 PUSH4 0x3EF4F4CA GT PUSH2 0xC6 JUMPI DUP1 PUSH4 0x3EF4F4CA EQ PUSH2 0x192 JUMPI DUP1 PUSH4 0x3F2698B2 EQ PUSH2 0x1CF JUMPI DUP1 PUSH4 0x4D4E8DFA EQ PUSH2 0x1FA JUMPI DUP1 PUSH4 0x4E347F2A EQ PUSH2 0x23A JUMPI PUSH2 0xE8 JUMP JUMPDEST DUP1 PUSH4 0x23CE9E94 EQ PUSH2 0xED JUMPI DUP1 PUSH4 0x246588F1 EQ PUSH2 0x118 JUMPI DUP1 PUSH4 0x25D5F5F0 EQ PUSH2 0x155 JUMPI JUMPDEST PUSH1 0x0 DUP1 REVERT JUMPDEST CALLVALUE DUP1 ISZERO PUSH2 0xF9 JUMPI PUSH1 0x0 DUP1 REVERT JUMPDEST POP PUSH2 0x102 PUSH2 0x3E3 JUMP JUMPDEST PUSH1 0x40 MLOAD PUSH2 0x10F SWAP2 SWAP1 PUSH2 0xC74 JUMP JUMPDEST PUSH1 0x40 MLOAD DUP1 SWAP2 SUB SWAP1 RETURN JUMPDEST CALLVALUE DUP1 ISZERO PUSH2 0x124 JUMPI PUSH1 0x0 DUP1 REVERT JUMPDEST POP PUSH2 0x13F PUSH1 0x4 DUP1 CALLDATASIZE SUB DUP2 ADD SWAP1 PUSH2 0x13A SWAP2 SWAP1 PUSH2 0xCFC JUMP JUMPDEST PUSH2 0x3E8 JUMP JUMPDEST PUSH1 0x40 MLOAD PUSH2 0x14C SWAP2 SWAP1 PUSH2 0xD44 JUMP JUMPDEST PUSH1 0x40 MLOAD DUP1 SWAP2 SUB SWAP1 RETURN JUMPDEST CALLVALUE DUP1 ISZERO PUSH2 0x161 JUMPI PUSH1 0x0 DUP1 REVERT JUMPDEST POP PUSH2 0x17C PUSH1 0x4 DUP1 CALLDATASIZE SUB DUP2 ADD SWAP1 PUSH2 0x177 SWAP2 SWAP1 PUSH2 0xF8F JUMP JUMPDEST PUSH2 0x3EF JUMP JUMPDEST PUSH1 0x40 MLOAD PUSH2 0x189 SWAP2 SWAP1 PUSH2 0xD44 JUMP JUMPDEST PUSH1 0x40 MLOAD DUP1 SWAP2 SUB SWAP1 RETURN JUMPDEST CALLVALUE DUP1 ISZERO PUSH2 0x19E JUMPI PUSH1 0x0 DUP1 REVERT JUMPDEST POP PUSH2 0x1B9 PUSH1 0x4 DUP1 CALLDATASIZE SUB DUP2 ADD SWAP1 PUSH2 0x1B4 SWAP2 SWAP1 PUSH2 0xFD0 JUMP JUMPDEST PUSH2 0x4BD JUMP JUMPDEST PUSH1 0x40 MLOAD PUSH2 0x1C6 SWAP2 SWAP1 PUSH2 0xC74 JUMP JUMPDEST PUSH1 0x40 MLOAD DUP1 SWAP2 SUB SWAP1 RETURN JUMPDEST CALLVALUE DUP1 ISZERO PUSH2 0x1DB JUMPI PUSH1 0x0 DUP1 REVERT JUMPDEST POP PUSH2 0x1E4 PUSH2 0x4D5 JUMP JUMPDEST PUSH1 0x40 MLOAD PUSH2 0x1F1 SWAP2 SWAP1 PUSH2 0xC74 JUMP JUMPDEST PUSH1 0x40 MLOAD DUP1 SWAP2 SUB SWAP1 RETURN JUMPDEST CALLVALUE DUP1 ISZERO PUSH2 0x206 JUMPI PUSH1 0x0 DUP1 REVERT JUMPDEST POP PUSH2 0x221 PUSH1 0x4 DUP1 CALLDATASIZE SUB DUP2 ADD SWAP1 PUSH2 0x21C SWAP2 SWAP1 PUSH2 0xFD0 JUMP JUMPDEST PUSH2 0x4DB JUMP JUMPDEST PUSH1 0x40 MLOAD PUSH2 0x231 SWAP5 SWAP4 SWAP3 SWAP2 SWAP1 PUSH2 0x100C JUMP JUMPDEST PUSH1 0x40 MLOAD DUP1 SWAP2 SUB SWAP1 RETURN JUMPDEST CALLVALUE DUP1 ISZERO PUSH2 0x246 JUMPI PUSH1 0x0 DUP1 REVERT JUMPDEST POP PUSH2 0x24F PUSH2 0x538 JUMP JUMPDEST PUSH1 0x40 MLOAD PUSH2 0x25C SWAP2 SWAP1 PUSH2 0xC74 JUMP JUMPDEST PUSH1 0x40 MLOAD DUP1 SWAP2 SUB SWAP1 RETURN JUMPDEST CALLVALUE DUP1 ISZERO PUSH2 0x271 JUMPI PUSH1 0x0 DUP1 REVERT JUMPDEST POP PUSH2 0x28C PUSH1 0x4 DUP1 CALLDATASIZE SUB DUP2 ADD SWAP1 PUSH2 0x287 SWAP2 SWAP1 PUSH2 0x1051 JUMP JUMPDEST PUSH2 0x53D JUMP JUMPDEST PUSH1 0x40 MLOAD PUSH2 0x299 SWAP2 SWAP1 PUSH2 0xD44 JUMP JUMPDEST PUSH1 0x40 MLOAD DUP1 SWAP2 SUB SWAP1 RETURN JUMPDEST CALLVALUE DUP1 ISZERO PUSH2 0x2AE JUMPI PUSH1 0x0 DUP1 REVERT JUMPDEST POP PUSH2 0x2B7 PUSH2 0x59C JUMP JUMPDEST PUSH1 0x40 MLOAD PUSH2 0x2C4 SWAP2 SWAP1 PUSH2 0xC74 JUMP JUMPDEST PUSH1 0x40 MLOAD DUP1 SWAP2 SUB SWAP1 RETURN JUMPDEST CALLVALUE DUP1 ISZERO PUSH2 0x2D9 JUMPI PUSH1 0x0 DUP1 REVERT JUMPDEST POP PUSH2 0x2F4 PUSH1 0x4 DUP1 CALLDATASIZE SUB DUP2 ADD SWAP1 PUSH2 0x2EF SWAP2 SWAP1 PUSH2 0x107E JUMP JUMPDEST PUSH2 0x5A1 JUMP JUMPDEST STOP JUMPDEST CALLVALUE DUP1 ISZERO PUSH2 0x302 JUMPI PUSH1 0x0 DUP1 REVERT JUMPDEST POP PUSH2 0x31D PUSH1 0x4 DUP1 CALLDATASIZE SUB DUP2 ADD SWAP1 PUSH2 0x318 SWAP2 SWAP1 PUSH2 0x107E JUMP JUMPDEST PUSH2 0x835 JUMP JUMPDEST PUSH1 0x40 MLOAD PUSH2 0x32A SWAP2 SWAP1 PUSH2 0xD44 JUMP JUMPDEST PUSH1 0x40 MLOAD DUP1 SWAP2 SUB SWAP1 RETURN JUMPDEST CALLVALUE DUP1 ISZERO PUSH2 0x33F JUMPI PUSH1 0x0 DUP1 REVERT JUMPDEST POP PUSH2 0x348 PUSH2 0x99C JUMP JUMPDEST STOP JUMPDEST CALLVALUE DUP1 ISZERO PUSH2 0x356 JUMPI PUSH1 0x0 DUP1 REVERT JUMPDEST POP PUSH2 0x35F PUSH2 0x99E JUMP JUMPDEST PUSH1 0x40 MLOAD PUSH2 0x36C SWAP2 SWAP1 PUSH2 0xC74 JUMP JUMPDEST PUSH1 0x40 MLOAD DUP1 SWAP2 SUB SWAP1 RETURN JUMPDEST CALLVALUE DUP1 ISZERO PUSH2 0x381 JUMPI PUSH1 0x0 DUP1 REVERT JUMPDEST POP PUSH2 0x39C PUSH1 0x4 DUP1 CALLDATASIZE SUB DUP2 ADD SWAP1 PUSH2 0x397 SWAP2 SWAP1 PUSH2 0xCFC JUMP JUMPDEST PUSH2 0x9A3 JUMP JUMPDEST PUSH1 0x40 MLOAD PUSH2 0x3AA SWAP3 SWAP2 SWAP1 PUSH2 0x10BE JUMP JUMPDEST PUSH1 0x40 MLOAD DUP1 SWAP2 SUB SWAP1 RETURN JUMPDEST PUSH2 0x3CD PUSH1 0x4 DUP1 CALLDATASIZE SUB DUP2 ADD SWAP1 PUSH2 0x3C8 SWAP2 SWAP1 PUSH2 0xFD0 JUMP JUMPDEST PUSH2 0x9D4 JUMP JUMPDEST PUSH1 0x40 MLOAD PUSH2 0x3DA SWAP2 SWAP1 PUSH2 0xD44 JUMP JUMPDEST PUSH1 0x40 MLOAD DUP1 SWAP2 SUB SWAP1 RETURN JUMPDEST PUSH1 0x3 DUP2 JUMP JUMPDEST PUSH1 0x0 SWAP2 SWAP1 POP JUMP JUMPDEST PUSH1 0x0 DUP1 PUSH1 0x0 SWAP1 POP DUP4 PUSH1 0x20 ADD MLOAD ISZERO PUSH2 0x423 JUMPI PUSH1 0x14 DUP5 PUSH1 0x0 ADD MLOAD DUP5 PUSH2 0x412 SWAP2 SWAP1 PUSH2 0x1116 JUMP JUMPDEST PUSH2 0x41C SWAP2 SWAP1 PUSH2 0x1179 JUMP JUMPDEST SWAP1 POP PUSH2 0x436 JUMP JUMPDEST DUP4 PUSH1 0x0 ADD MLOAD DUP4 PUSH2 0x433 SWAP2 SWAP1 PUSH2 0x1116 JUMP JUMPDEST SWAP1 POP JUMPDEST PUSH1 0x1 DUP5 PUSH1 0x40 ADD MLOAD DUP3 PUSH1 0x3 DUP2 LT PUSH2 0x44F JUMPI PUSH2 0x44E PUSH2 0x11AA JUMP JUMPDEST JUMPDEST PUSH1 0x20 MUL ADD SWAP1 ISZERO ISZERO SWAP1 DUP2 ISZERO ISZERO DUP2 MSTORE POP POP PUSH2 0x467 DUP5 PUSH2 0x53D JUMP JUMPDEST ISZERO PUSH2 0x4B1 JUMPI PUSH32 0xF6EFC0F0F7270E6470AE421C2C220A2930F349C2E85E2CFF70701CB5EE7B1DE2 DUP5 PUSH1 0x60 ADD MLOAD PUSH1 0x40 MLOAD PUSH2 0x49F SWAP2 SWAP1 PUSH2 0x11D9 JUMP JUMPDEST PUSH1 0x40 MLOAD DUP1 SWAP2 SUB SWAP1 LOG1 PUSH1 0x1 SWAP2 POP POP PUSH2 0x4B7 JUMP JUMPDEST PUSH1 0x0 SWAP2 POP POP JUMPDEST SWAP3 SWAP2 POP POP JUMP JUMPDEST PUSH1 0x2 PUSH1 0x20 MSTORE DUP1 PUSH1 0x0 MSTORE PUSH1 0x40 PUSH1 0x0 KECCAK256 PUSH1 0x0 SWAP2 POP SWAP1 POP SLOAD DUP2 JUMP JUMPDEST PUSH1 0x0 SLOAD DUP2 JUMP JUMPDEST PUSH1 0x3 PUSH1 0x20 MSTORE DUP1 PUSH1 0x0 MSTORE PUSH1 0x40 PUSH1 0x0 KECCAK256 PUSH1 0x0 SWAP2 POP SWAP1 POP DUP1 PUSH1 0x0 ADD SLOAD SWAP1 DUP1 PUSH1 0x1 ADD PUSH1 0x0 SWAP1 SLOAD SWAP1 PUSH2 0x100 EXP SWAP1 DIV PUSH1 0xFF AND SWAP1 DUP1 PUSH1 0x3 ADD PUSH1 0x0 SWAP1 SLOAD SWAP1 PUSH2 0x100 EXP SWAP1 DIV PUSH20 0xFFFFFFFFFFFFFFFFFFFFFFFFFFFFFFFFFFFFFFFF AND SWAP1 DUP1 PUSH1 0x4 ADD SLOAD SWAP1 POP DUP5 JUMP JUMPDEST PUSH1 0x0 SWAP1 JUMP JUMPDEST PUSH1 0x0 DUP1 PUSH1 0x0 SWAP1 POP JUMPDEST DUP3 PUSH1 0x40 ADD MLOAD POP PUSH1 0x3 DUP2 LT ISZERO PUSH2 0x591 JUMPI DUP3 PUSH1 0x40 ADD MLOAD DUP2 PUSH1 0x3 DUP2 LT PUSH2 0x56B JUMPI PUSH2 0x56A PUSH2 0x11AA JUMP JUMPDEST JUMPDEST PUSH1 0x20 MUL ADD MLOAD PUSH2 0x57E JUMPI PUSH1 0x0 SWAP2 POP POP PUSH2 0x597 JUMP JUMPDEST DUP1 DUP1 PUSH2 0x589 SWAP1 PUSH2 0x11F4 JUMP JUMPDEST SWAP2 POP POP PUSH2 0x545 JUMP JUMPDEST POP PUSH1 0x1 SWAP1 POP JUMPDEST SWAP2 SWAP1 POP JUMP JUMPDEST PUSH1 0x14 DUP2 JUMP JUMPDEST PUSH2 0x5AB DUP3 DUP3 PUSH2 0x835 JUMP JUMPDEST PUSH2 0x5EA JUMPI PUSH1 0x40 MLOAD PUSH32 0x8C379A000000000000000000000000000000000000000000000000000000000 DUP2 MSTORE PUSH1 0x4 ADD PUSH2 0x5E1 SWAP1 PUSH2 0x1299 JUMP JUMPDEST PUSH1 0x40 MLOAD DUP1 SWAP2 SUB SWAP1 REVERT JUMPDEST PUSH1 0x0 DUP1 SLOAD SWAP1 POP PUSH1 0x1 PUSH1 0x0 SLOAD PUSH2 0x5FF SWAP2 SWAP1 PUSH2 0x12B9 JUMP JUMPDEST PUSH1 0x0 DUP2 SWAP1 SSTORE POP PUSH1 0x0 PUSH1 0x40 MLOAD DUP1 PUSH1 0xA0 ADD PUSH1 0x40 MSTORE DUP1 DUP6 DUP2 MSTORE PUSH1 0x20 ADD DUP5 ISZERO ISZERO DUP2 MSTORE PUSH1 0x20 ADD PUSH1 0x40 MLOAD DUP1 PUSH1 0x60 ADD PUSH1 0x40 MSTORE DUP1 PUSH1 0x0 ISZERO ISZERO ISZERO ISZERO DUP2 MSTORE PUSH1 0x20 ADD PUSH1 0x0 ISZERO ISZERO ISZERO ISZERO DUP2 MSTORE PUSH1 0x20 ADD PUSH1 0x0 ISZERO ISZERO ISZERO ISZERO DUP2 MSTORE POP DUP2 MSTORE PUSH1 0x20 ADD CALLER PUSH20 0xFFFFFFFFFFFFFFFFFFFFFFFFFFFFFFFFFFFFFFFF AND DUP2 MSTORE PUSH1 0x20 ADD DUP4 DUP2 MSTORE POP SWAP1 POP DUP1 PUSH1 0x3 PUSH1 0x0 DUP1 SLOAD DUP2 MSTORE PUSH1 0x20 ADD SWAP1 DUP2 MSTORE PUSH1 0x20 ADD PUSH1 0x0 KECCAK256 PUSH1 0x0 DUP3 ADD MLOAD DUP2 PUSH1 0x0 ADD SSTORE PUSH1 0x20 DUP3 ADD MLOAD DUP2 PUSH1 0x1 ADD PUSH1 0x0 PUSH2 0x100 EXP DUP2 SLOAD DUP2 PUSH1 0xFF MUL NOT AND SWAP1 DUP4 ISZERO ISZERO MUL OR SWAP1 SSTORE POP PUSH1 0x40 DUP3 ADD MLOAD DUP2 PUSH1 0x2 ADD SWAP1 PUSH1 0x3 PUSH2 0x6C7 SWAP3 SWAP2 SWAP1 PUSH2 0xBA5 JUMP JUMPDEST POP PUSH1 0x60 DUP3 ADD MLOAD DUP2 PUSH1 0x3 ADD PUSH1 0x0 PUSH2 0x100 EXP DUP2 SLOAD DUP2 PUSH20 0xFFFFFFFFFFFFFFFFFFFFFFFFFFFFFFFFFFFFFFFF MUL NOT AND SWAP1 DUP4 PUSH20 0xFFFFFFFFFFFFFFFFFFFFFFFFFFFFFFFFFFFFFFFF AND MUL OR SWAP1 SSTORE POP PUSH1 0x80 DUP3 ADD MLOAD DUP2 PUSH1 0x4 ADD SSTORE SWAP1 POP POP DUP3 ISZERO PUSH2 0x793 JUMPI DUP2 PUSH1 0x2 PUSH1 0x0 DUP7 DUP2 MSTORE PUSH1 0x20 ADD SWAP1 DUP2 MSTORE PUSH1 0x20 ADD PUSH1 0x0 KECCAK256 DUP2 SWAP1 SSTORE POP DUP2 PUSH1 0x2 PUSH1 0x0 PUSH1 0x14 DUP8 PUSH2 0x74C SWAP2 SWAP1 PUSH2 0x12B9 JUMP JUMPDEST DUP2 MSTORE PUSH1 0x20 ADD SWAP1 DUP2 MSTORE PUSH1 0x20 ADD PUSH1 0x0 KECCAK256 DUP2 SWAP1 SSTORE POP DUP2 PUSH1 0x2 PUSH1 0x0 PUSH1 0x14 PUSH1 0x2 PUSH2 0x771 SWAP2 SWAP1 PUSH2 0x12ED JUMP JUMPDEST DUP8 PUSH2 0x77C SWAP2 SWAP1 PUSH2 0x12B9 JUMP JUMPDEST DUP2 MSTORE PUSH1 0x20 ADD SWAP1 DUP2 MSTORE PUSH1 0x20 ADD PUSH1 0x0 KECCAK256 DUP2 SWAP1 SSTORE POP PUSH2 0x7F4 JUMP JUMPDEST DUP2 PUSH1 0x2 PUSH1 0x0 DUP7 DUP2 MSTORE PUSH1 0x20 ADD SWAP1 DUP2 MSTORE PUSH1 0x20 ADD PUSH1 0x0 KECCAK256 DUP2 SWAP1 SSTORE POP DUP2 PUSH1 0x2 PUSH1 0x0 PUSH1 0x1 DUP8 PUSH2 0x7BD SWAP2 SWAP1 PUSH2 0x12B9 JUMP JUMPDEST DUP2 MSTORE PUSH1 0x20 ADD SWAP1 DUP2 MSTORE PUSH1 0x20 ADD PUSH1 0x0 KECCAK256 DUP2 SWAP1 SSTORE POP DUP2 PUSH1 0x2 PUSH1 0x0 PUSH1 0x2 DUP8 PUSH2 0x7E1 SWAP2 SWAP1 PUSH2 0x12B9 JUMP JUMPDEST DUP2 MSTORE PUSH1 0x20 ADD SWAP1 DUP2 MSTORE PUSH1 0x20 ADD PUSH1 0x0 KECCAK256 DUP2 SWAP1 SSTORE POP JUMPDEST PUSH32 0x9AA67A02BA8B9AEDF25B60316883C55EAA0CB17631C416719D042BD062E3D9E3 CALLER DUP6 DUP6 PUSH1 0x40 MLOAD PUSH2 0x827 SWAP4 SWAP3 SWAP2 SWAP1 PUSH2 0x132F JUMP JUMPDEST PUSH1 0x40 MLOAD DUP1 SWAP2 SUB SWAP1 LOG1 POP POP POP POP JUMP JUMPDEST PUSH1 0x0 DUP2 DUP1 ISZERO PUSH2 0x873 JUMPI POP PUSH1 0x14 DUP1 PUSH2 0x84C SWAP2 SWAP1 PUSH2 0x12ED JUMP JUMPDEST PUSH1 0x14 PUSH1 0x1 PUSH1 0x3 PUSH2 0x85C SWAP2 SWAP1 PUSH2 0x1116 JUMP JUMPDEST PUSH2 0x866 SWAP2 SWAP1 PUSH2 0x12ED JUMP JUMPDEST DUP5 PUSH2 0x871 SWAP2 SWAP1 PUSH2 0x12B9 JUMP JUMPDEST GT JUMPDEST ISZERO PUSH2 0x881 JUMPI PUSH1 0x0 SWAP1 POP PUSH2 0x996 JUMP JUMPDEST DUP2 ISZERO DUP1 ISZERO PUSH2 0x8B2 JUMPI POP PUSH1 0x14 DUP1 PUSH2 0x897 SWAP2 SWAP1 PUSH2 0x12ED JUMP JUMPDEST PUSH1 0x1 PUSH1 0x3 PUSH2 0x8A5 SWAP2 SWAP1 PUSH2 0x1116 JUMP JUMPDEST DUP5 PUSH2 0x8B0 SWAP2 SWAP1 PUSH2 0x12B9 JUMP JUMPDEST GT JUMPDEST ISZERO PUSH2 0x8C0 JUMPI PUSH1 0x0 SWAP1 POP PUSH2 0x996 JUMP JUMPDEST DUP2 ISZERO PUSH2 0x92F JUMPI PUSH1 0x0 JUMPDEST PUSH1 0x1 PUSH1 0x3 PUSH2 0x8D7 SWAP2 SWAP1 PUSH2 0x1116 JUMP JUMPDEST DUP2 LT ISZERO PUSH2 0x92D JUMPI PUSH1 0x0 PUSH1 0x2 PUSH1 0x0 PUSH1 0x14 DUP5 PUSH2 0x8F1 SWAP2 SWAP1 PUSH2 0x12ED JUMP JUMPDEST DUP8 PUSH2 0x8FC SWAP2 SWAP1 PUSH2 0x12B9 JUMP JUMPDEST DUP2 MSTORE PUSH1 0x20 ADD SWAP1 DUP2 MSTORE PUSH1 0x20 ADD PUSH1 0x0 KECCAK256 SLOAD EQ PUSH2 0x91A JUMPI PUSH1 0x0 SWAP2 POP POP PUSH2 0x996 JUMP JUMPDEST DUP1 DUP1 PUSH2 0x925 SWAP1 PUSH2 0x11F4 JUMP JUMPDEST SWAP2 POP POP PUSH2 0x8C9 JUMP JUMPDEST POP JUMPDEST DUP2 PUSH2 0x991 JUMPI PUSH1 0x0 JUMPDEST PUSH1 0x1 PUSH1 0x3 PUSH2 0x945 SWAP2 SWAP1 PUSH2 0x1116 JUMP JUMPDEST DUP2 LT ISZERO PUSH2 0x98F JUMPI PUSH1 0x0 PUSH1 0x2 PUSH1 0x0 DUP4 DUP8 PUSH2 0x95E SWAP2 SWAP1 PUSH2 0x12B9 JUMP JUMPDEST DUP2 MSTORE PUSH1 0x20 ADD SWAP1 DUP2 MSTORE PUSH1 0x20 ADD PUSH1 0x0 KECCAK256 SLOAD EQ PUSH2 0x97C JUMPI PUSH1 0x0 SWAP2 POP POP PUSH2 0x996 JUMP JUMPDEST DUP1 DUP1 PUSH2 0x987 SWAP1 PUSH2 0x11F4 JUMP JUMPDEST SWAP2 POP POP PUSH2 0x937 JUMP JUMPDEST POP JUMPDEST PUSH1 0x1 SWAP1 POP JUMPDEST SWAP3 SWAP2 POP POP JUMP JUMPDEST JUMP JUMPDEST PUSH1 0x1 DUP2 JUMP JUMPDEST PUSH1 0x1 PUSH1 0x20 MSTORE DUP1 PUSH1 0x0 MSTORE PUSH1 0x40 PUSH1 0x0 KECCAK256 PUSH1 0x0 SWAP2 POP SWAP1 POP DUP1 PUSH1 0x5 ADD SLOAD SWAP1 DUP1 PUSH1 0x6 ADD PUSH1 0x0 SWAP1 SLOAD SWAP1 PUSH2 0x100 EXP SWAP1 DIV PUSH1 0xFF AND SWAP1 POP DUP3 JUMP JUMPDEST PUSH1 0x0 DUP1 PUSH1 0x2 PUSH1 0x0 DUP5 DUP2 MSTORE PUSH1 0x20 ADD SWAP1 DUP2 MSTORE PUSH1 0x20 ADD PUSH1 0x0 KECCAK256 SLOAD EQ PUSH2 0xB5F JUMPI PUSH32 0xD835FA23A35044202CE28B2770EB0FBB01103F3E9AA24B13F8B198EBE285A689 CALLER DUP4 PUSH1 0x1 PUSH1 0x40 MLOAD PUSH2 0xA24 SWAP4 SWAP3 SWAP2 SWAP1 PUSH2 0x132F JUMP JUMPDEST PUSH1 0x40 MLOAD DUP1 SWAP2 SUB SWAP1 LOG1 PUSH2 0xB55 PUSH1 0x3 PUSH1 0x0 PUSH1 0x2 PUSH1 0x0 DUP7 DUP2 MSTORE PUSH1 0x20 ADD SWAP1 DUP2 MSTORE PUSH1 0x20 ADD PUSH1 0x0 KECCAK256 SLOAD DUP2 MSTORE PUSH1 0x20 ADD SWAP1 DUP2 MSTORE PUSH1 0x20 ADD PUSH1 0x0 KECCAK256 PUSH1 0x40 MLOAD DUP1 PUSH1 0xA0 ADD PUSH1 0x40 MSTORE SWAP1 DUP2 PUSH1 0x0 DUP3 ADD SLOAD DUP2 MSTORE PUSH1 0x20 ADD PUSH1 0x1 DUP3 ADD PUSH1 0x0 SWAP1 SLOAD SWAP1 PUSH2 0x100 EXP SWAP1 DIV PUSH1 0xFF AND ISZERO ISZERO ISZERO ISZERO DUP2 MSTORE PUSH1 0x20 ADD PUSH1 0x2 DUP3 ADD PUSH1 0x3 DUP1 PUSH1 0x20 MUL PUSH1 0x40 MLOAD SWAP1 DUP2 ADD PUSH1 0x40 MSTORE DUP1 SWAP3 SWAP2 SWAP1 DUP3 PUSH1 0x3 DUP1 ISZERO PUSH2 0xAE6 JUMPI PUSH1 0x20 MUL DUP3 ADD SWAP2 PUSH1 0x0 SWAP1 JUMPDEST DUP3 DUP3 SWAP1 SLOAD SWAP1 PUSH2 0x100 EXP SWAP1 DIV PUSH1 0xFF AND ISZERO ISZERO DUP2 MSTORE PUSH1 0x20 ADD SWAP1 PUSH1 0x1 ADD SWAP1 PUSH1 0x20 DUP3 PUSH1 0x0 ADD DIV SWAP3 DUP4 ADD SWAP3 PUSH1 0x1 SUB DUP3 MUL SWAP2 POP DUP1 DUP5 GT PUSH2 0xAB0 JUMPI SWAP1 POP JUMPDEST POP POP POP POP POP DUP2 MSTORE PUSH1 0x20 ADD PUSH1 0x3 DUP3 ADD PUSH1 0x0 SWAP1 SLOAD SWAP1 PUSH2 0x100 EXP SWAP1 DIV PUSH20 0xFFFFFFFFFFFFFFFFFFFFFFFFFFFFFFFFFFFFFFFF AND PUSH20 0xFFFFFFFFFFFFFFFFFFFFFFFFFFFFFFFFFFFFFFFF AND PUSH20 0xFFFFFFFFFFFFFFFFFFFFFFFFFFFFFFFFFFFFFFFF AND DUP2 MSTORE PUSH1 0x20 ADD PUSH1 0x4 DUP3 ADD SLOAD DUP2 MSTORE POP POP DUP4 PUSH2 0x3EF JUMP JUMPDEST POP PUSH1 0x1 SWAP1 POP PUSH2 0xBA0 JUMP JUMPDEST PUSH32 0xD835FA23A35044202CE28B2770EB0FBB01103F3E9AA24B13F8B198EBE285A689 CALLER DUP4 PUSH1 0x0 PUSH1 0x40 MLOAD PUSH2 0xB93 SWAP4 SWAP3 SWAP2 SWAP1 PUSH2 0x132F JUMP JUMPDEST PUSH1 0x40 MLOAD DUP1 SWAP2 SUB SWAP1 LOG1 PUSH1 0x0 SWAP1 POP JUMPDEST SWAP2 SWAP1 POP JUMP JUMPDEST DUP3 PUSH1 0x3 PUSH1 0x1F ADD PUSH1 0x20 SWAP1 DIV DUP2 ADD SWAP3 DUP3 ISZERO PUSH2 0xC2D JUMPI SWAP2 PUSH1 0x20 MUL DUP3 ADD PUSH1 0x0 JUMPDEST DUP4 DUP3 GT ISZERO PUSH2 0xBFE JUMPI DUP4 MLOAD DUP4 DUP3 PUSH2 0x100 EXP DUP2 SLOAD DUP2 PUSH1 0xFF MUL NOT AND SWAP1 DUP4 ISZERO ISZERO MUL OR SWAP1 SSTORE POP SWAP3 PUSH1 0x20 ADD SWAP3 PUSH1 0x1 ADD PUSH1 0x20 DUP2 PUSH1 0x0 ADD DIV SWAP3 DUP4 ADD SWAP3 PUSH1 0x1 SUB MUL PUSH2 0xBC1 JUMP JUMPDEST DUP1 ISZERO PUSH2 0xC2B JUMPI DUP3 DUP2 PUSH2 0x100 EXP DUP2 SLOAD SWAP1 PUSH1 0xFF MUL NOT AND SWAP1 SSTORE PUSH1 0x1 ADD PUSH1 0x20 DUP2 PUSH1 0x0 ADD DIV SWAP3 DUP4 ADD SWAP3 PUSH1 0x1 SUB MUL PUSH2 0xBFE JUMP JUMPDEST POP JUMPDEST POP SWAP1 POP PUSH2 0xC3A SWAP2 SWAP1 PUSH2 0xC3E JUMP JUMPDEST POP SWAP1 JUMP JUMPDEST JUMPDEST DUP1 DUP3 GT ISZERO PUSH2 0xC57 JUMPI PUSH1 0x0 DUP2 PUSH1 0x0 SWAP1 SSTORE POP PUSH1 0x1 ADD PUSH2 0xC3F JUMP JUMPDEST POP SWAP1 JUMP JUMPDEST PUSH1 0x0 DUP2 SWAP1 POP SWAP2 SWAP1 POP JUMP JUMPDEST PUSH2 0xC6E DUP2 PUSH2 0xC5B JUMP JUMPDEST DUP3 MSTORE POP POP JUMP JUMPDEST PUSH1 0x0 PUSH1 0x20 DUP3 ADD SWAP1 POP PUSH2 0xC89 PUSH1 0x0 DUP4 ADD DUP5 PUSH2 0xC65 JUMP JUMPDEST SWAP3 SWAP2 POP POP JUMP JUMPDEST PUSH1 0x0 PUSH1 0x40 MLOAD SWAP1 POP SWAP1 JUMP JUMPDEST PUSH1 0x0 DUP1 REVERT JUMPDEST PUSH1 0x0 PUSH20 0xFFFFFFFFFFFFFFFFFFFFFFFFFFFFFFFFFFFFFFFF DUP3 AND SWAP1 POP SWAP2 SWAP1 POP JUMP JUMPDEST PUSH1 0x0 PUSH2 0xCC9 DUP3 PUSH2 0xC9E JUMP JUMPDEST SWAP1 POP SWAP2 SWAP1 POP JUMP JUMPDEST PUSH2 0xCD9 DUP2 PUSH2 0xCBE JUMP JUMPDEST DUP2 EQ PUSH2 0xCE4 JUMPI PUSH1 0x0 DUP1 REVERT JUMPDEST POP JUMP JUMPDEST PUSH1 0x0 DUP2 CALLDATALOAD SWAP1 POP PUSH2 0xCF6 DUP2 PUSH2 0xCD0 JUMP JUMPDEST SWAP3 SWAP2 POP POP JUMP JUMPDEST PUSH1 0x0 PUSH1 0x20 DUP3 DUP5 SUB SLT ISZERO PUSH2 0xD12 JUMPI PUSH2 0xD11 PUSH2 0xC99 JUMP JUMPDEST JUMPDEST PUSH1 0x0 PUSH2 0xD20 DUP5 DUP3 DUP6 ADD PUSH2 0xCE7 JUMP JUMPDEST SWAP2 POP POP SWAP3 SWAP2 POP POP JUMP JUMPDEST PUSH1 0x0 DUP2 ISZERO ISZERO SWAP1 POP SWAP2 SWAP1 POP JUMP JUMPDEST PUSH2 0xD3E DUP2 PUSH2 0xD29 JUMP JUMPDEST DUP3 MSTORE POP POP JUMP JUMPDEST PUSH1 0x0 PUSH1 0x20 DUP3 ADD SWAP1 POP PUSH2 0xD59 PUSH1 0x0 DUP4 ADD DUP5 PUSH2 0xD35 JUMP JUMPDEST SWAP3 SWAP2 POP POP JUMP JUMPDEST PUSH1 0x0 DUP1 REVERT JUMPDEST PUSH1 0x0 PUSH1 0x1F NOT PUSH1 0x1F DUP4 ADD AND SWAP1 POP SWAP2 SWAP1 POP JUMP JUMPDEST PUSH32 0x4E487B7100000000000000000000000000000000000000000000000000000000 PUSH1 0x0 MSTORE PUSH1 0x41 PUSH1 0x4 MSTORE PUSH1 0x24 PUSH1 0x0 REVERT JUMPDEST PUSH2 0xDAD DUP3 PUSH2 0xD64 JUMP JUMPDEST DUP2 ADD DUP2 DUP2 LT PUSH8 0xFFFFFFFFFFFFFFFF DUP3 GT OR ISZERO PUSH2 0xDCC JUMPI PUSH2 0xDCB PUSH2 0xD75 JUMP JUMPDEST JUMPDEST DUP1 PUSH1 0x40 MSTORE POP POP POP JUMP JUMPDEST PUSH1 0x0 PUSH2 0xDDF PUSH2 0xC8F JUMP JUMPDEST SWAP1 POP PUSH2 0xDEB DUP3 DUP3 PUSH2 0xDA4 JUMP JUMPDEST SWAP2 SWAP1 POP JUMP JUMPDEST PUSH2 0xDF9 DUP2 PUSH2 0xC5B JUMP JUMPDEST DUP2 EQ PUSH2 0xE04 JUMPI PUSH1 0x0 DUP1 REVERT JUMPDEST POP JUMP JUMPDEST PUSH1 0x0 DUP2 CALLDATALOAD SWAP1 POP PUSH2 0xE16 DUP2 PUSH2 0xDF0 JUMP JUMPDEST SWAP3 SWAP2 POP POP JUMP JUMPDEST PUSH2 0xE25 DUP2 PUSH2 0xD29 JUMP JUMPDEST DUP2 EQ PUSH2 0xE30 JUMPI PUSH1 0x0 DUP1 REVERT JUMPDEST POP JUMP JUMPDEST PUSH1 0x0 DUP2 CALLDATALOAD SWAP1 POP PUSH2 0xE42 DUP2 PUSH2 0xE1C JUMP JUMPDEST SWAP3 SWAP2 POP POP JUMP JUMPDEST PUSH1 0x0 DUP1 REVERT JUMPDEST PUSH1 0x0 PUSH8 0xFFFFFFFFFFFFFFFF DUP3 GT ISZERO PUSH2 0xE68 JUMPI PUSH2 0xE67 PUSH2 0xD75 JUMP JUMPDEST JUMPDEST PUSH1 0x20 DUP3 MUL SWAP1 POP SWAP2 SWAP1 POP JUMP JUMPDEST PUSH1 0x0 DUP1 REVERT JUMPDEST PUSH1 0x0 PUSH2 0xE8B PUSH2 0xE86 DUP5 PUSH2 0xE4D JUMP JUMPDEST PUSH2 0xDD5 JUMP JUMPDEST SWAP1 POP DUP1 PUSH1 0x20 DUP5 MUL DUP4 ADD DUP6 DUP2 GT ISZERO PUSH2 0xEA5 JUMPI PUSH2 0xEA4 PUSH2 0xE73 JUMP JUMPDEST JUMPDEST DUP4 JUMPDEST DUP2 DUP2 LT ISZERO PUSH2 0xECE JUMPI DUP1 PUSH2 0xEBA DUP9 DUP3 PUSH2 0xE33 JUMP JUMPDEST DUP5 MSTORE PUSH1 0x20 DUP5 ADD SWAP4 POP POP PUSH1 0x20 DUP2 ADD SWAP1 POP PUSH2 0xEA7 JUMP JUMPDEST POP POP POP SWAP4 SWAP3 POP POP POP JUMP JUMPDEST PUSH1 0x0 DUP3 PUSH1 0x1F DUP4 ADD SLT PUSH2 0xEED JUMPI PUSH2 0xEEC PUSH2 0xE48 JUMP JUMPDEST JUMPDEST PUSH1 0x3 PUSH2 0xEFA DUP5 DUP3 DUP6 PUSH2 0xE78 JUMP JUMPDEST SWAP2 POP POP SWAP3 SWAP2 POP POP JUMP JUMPDEST PUSH1 0x0 PUSH1 0xE0 DUP3 DUP5 SUB SLT ISZERO PUSH2 0xF19 JUMPI PUSH2 0xF18 PUSH2 0xD5F JUMP JUMPDEST JUMPDEST PUSH2 0xF23 PUSH1 0xA0 PUSH2 0xDD5 JUMP JUMPDEST SWAP1 POP PUSH1 0x0 PUSH2 0xF33 DUP5 DUP3 DUP6 ADD PUSH2 0xE07 JUMP JUMPDEST PUSH1 0x0 DUP4 ADD MSTORE POP PUSH1 0x20 PUSH2 0xF47 DUP5 DUP3 DUP6 ADD PUSH2 0xE33 JUMP JUMPDEST PUSH1 0x20 DUP4 ADD MSTORE POP PUSH1 0x40 PUSH2 0xF5B DUP5 DUP3 DUP6 ADD PUSH2 0xED8 JUMP JUMPDEST PUSH1 0x40 DUP4 ADD MSTORE POP PUSH1 0xA0 PUSH2 0xF6F DUP5 DUP3 DUP6 ADD PUSH2 0xCE7 JUMP JUMPDEST PUSH1 0x60 DUP4 ADD MSTORE POP PUSH1 0xC0 PUSH2 0xF83 DUP5 DUP3 DUP6 ADD PUSH2 0xE07 JUMP JUMPDEST PUSH1 0x80 DUP4 ADD MSTORE POP SWAP3 SWAP2 POP POP JUMP JUMPDEST PUSH1 0x0 DUP1 PUSH2 0x100 DUP4 DUP6 SUB SLT ISZERO PUSH2 0xFA7 JUMPI PUSH2 0xFA6 PUSH2 0xC99 JUMP JUMPDEST JUMPDEST PUSH1 0x0 PUSH2 0xFB5 DUP6 DUP3 DUP7 ADD PUSH2 0xF03 JUMP JUMPDEST SWAP3 POP POP PUSH1 0xE0 PUSH2 0xFC6 DUP6 DUP3 DUP7 ADD PUSH2 0xE07 JUMP JUMPDEST SWAP2 POP POP SWAP3 POP SWAP3 SWAP1 POP JUMP JUMPDEST PUSH1 0x0 PUSH1 0x20 DUP3 DUP5 SUB SLT ISZERO PUSH2 0xFE6 JUMPI PUSH2 0xFE5 PUSH2 0xC99 JUMP JUMPDEST JUMPDEST PUSH1 0x0 PUSH2 0xFF4 DUP5 DUP3 DUP6 ADD PUSH2 0xE07 JUMP JUMPDEST SWAP2 POP POP SWAP3 SWAP2 POP POP JUMP JUMPDEST PUSH2 0x1006 DUP2 PUSH2 0xCBE JUMP JUMPDEST DUP3 MSTORE POP POP JUMP JUMPDEST PUSH1 0x0 PUSH1 0x80 DUP3 ADD SWAP1 POP PUSH2 0x1021 PUSH1 0x0 DUP4 ADD DUP8 PUSH2 0xC65 JUMP JUMPDEST PUSH2 0x102E PUSH1 0x20 DUP4 ADD DUP7 PUSH2 0xD35 JUMP JUMPDEST PUSH2 0x103B PUSH1 0x40 DUP4 ADD DUP6 PUSH2 0xFFD JUMP JUMPDEST PUSH2 0x1048 PUSH1 0x60 DUP4 ADD DUP5 PUSH2 0xC65 JUMP JUMPDEST SWAP6 SWAP5 POP POP POP POP POP JUMP JUMPDEST PUSH1 0x0 PUSH1 0xE0 DUP3 DUP5 SUB SLT ISZERO PUSH2 0x1067 JUMPI PUSH2 0x1066 PUSH2 0xC99 JUMP JUMPDEST JUMPDEST PUSH1 0x0 PUSH2 0x1075 DUP5 DUP3 DUP6 ADD PUSH2 0xF03 JUMP JUMPDEST SWAP2 POP POP SWAP3 SWAP2 POP POP JUMP JUMPDEST PUSH1 0x0 DUP1 PUSH1 0x40 DUP4 DUP6 SUB SLT ISZERO PUSH2 0x1095 JUMPI PUSH2 0x1094 PUSH2 0xC99 JUMP JUMPDEST JUMPDEST PUSH1 0x0 PUSH2 0x10A3 DUP6 DUP3 DUP7 ADD PUSH2 0xE07 JUMP JUMPDEST SWAP3 POP POP PUSH1 0x20 PUSH2 0x10B4 DUP6 DUP3 DUP7 ADD PUSH2 0xE33 JUMP JUMPDEST SWAP2 POP POP SWAP3 POP SWAP3 SWAP1 POP JUMP JUMPDEST PUSH1 0x0 PUSH1 0x40 DUP3 ADD SWAP1 POP PUSH2 0x10D3 PUSH1 0x0 DUP4 ADD DUP6 PUSH2 0xC65 JUMP JUMPDEST PUSH2 0x10E0 PUSH1 0x20 DUP4 ADD DUP5 PUSH2 0xD35 JUMP JUMPDEST SWAP4 SWAP3 POP POP POP JUMP JUMPDEST PUSH32 0x4E487B7100000000000000000000000000000000000000000000000000000000 PUSH1 0x0 MSTORE PUSH1 0x11 PUSH1 0x4 MSTORE PUSH1 0x24 PUSH1 0x0 REVERT JUMPDEST PUSH1 0x0 PUSH2 0x1121 DUP3 PUSH2 0xC5B JUMP JUMPDEST SWAP2 POP PUSH2 0x112C DUP4 PUSH2 0xC5B JUMP JUMPDEST SWAP3 POP DUP3 DUP3 SUB SWAP1 POP DUP2 DUP2 GT ISZERO PUSH2 0x1144 JUMPI PUSH2 0x1143 PUSH2 0x10E7 JUMP JUMPDEST JUMPDEST SWAP3 SWAP2 POP POP JUMP JUMPDEST PUSH32 0x4E487B7100000000000000000000000000000000000000000000000000000000 PUSH1 0x0 MSTORE PUSH1 0x12 PUSH1 0x4 MSTORE PUSH1 0x24 PUSH1 0x0 REVERT JUMPDEST PUSH1 0x0 PUSH2 0x1184 DUP3 PUSH2 0xC5B JUMP JUMPDEST SWAP2 POP PUSH2 0x118F DUP4 PUSH2 0xC5B JUMP JUMPDEST SWAP3 POP DUP3 PUSH2 0x119F JUMPI PUSH2 0x119E PUSH2 0x114A JUMP JUMPDEST JUMPDEST DUP3 DUP3 DIV SWAP1 POP SWAP3 SWAP2 POP POP JUMP JUMPDEST PUSH32 0x4E487B7100000000000000000000000000000000000000000000000000000000 PUSH1 0x0 MSTORE PUSH1 0x32 PUSH1 0x4 MSTORE PUSH1 0x24 PUSH1 0x0 REVERT JUMPDEST PUSH1 0x0 PUSH1 0x20 DUP3 ADD SWAP1 POP PUSH2 0x11EE PUSH1 0x0 DUP4 ADD DUP5 PUSH2 0xFFD JUMP JUMPDEST SWAP3 SWAP2 POP POP JUMP JUMPDEST PUSH1 0x0 PUSH2 0x11FF DUP3 PUSH2 0xC5B JUMP JUMPDEST SWAP2 POP PUSH32 0xFFFFFFFFFFFFFFFFFFFFFFFFFFFFFFFFFFFFFFFFFFFFFFFFFFFFFFFFFFFFFFFF DUP3 SUB PUSH2 0x1231 JUMPI PUSH2 0x1230 PUSH2 0x10E7 JUMP JUMPDEST JUMPDEST PUSH1 0x1 DUP3 ADD SWAP1 POP SWAP2 SWAP1 POP JUMP JUMPDEST PUSH1 0x0 DUP3 DUP3 MSTORE PUSH1 0x20 DUP3 ADD SWAP1 POP SWAP3 SWAP2 POP POP JUMP JUMPDEST PUSH32 0x496E76616C6964207368697020706F736974696F6E0000000000000000000000 PUSH1 0x0 DUP3 ADD MSTORE POP JUMP JUMPDEST PUSH1 0x0 PUSH2 0x1283 PUSH1 0x15 DUP4 PUSH2 0x123C JUMP JUMPDEST SWAP2 POP PUSH2 0x128E DUP3 PUSH2 0x124D JUMP JUMPDEST PUSH1 0x20 DUP3 ADD SWAP1 POP SWAP2 SWAP1 POP JUMP JUMPDEST PUSH1 0x0 PUSH1 0x20 DUP3 ADD SWAP1 POP DUP2 DUP2 SUB PUSH1 0x0 DUP4 ADD MSTORE PUSH2 0x12B2 DUP2 PUSH2 0x1276 JUMP JUMPDEST SWAP1 POP SWAP2 SWAP1 POP JUMP JUMPDEST PUSH1 0x0 PUSH2 0x12C4 DUP3 PUSH2 0xC5B JUMP JUMPDEST SWAP2 POP PUSH2 0x12CF DUP4 PUSH2 0xC5B JUMP JUMPDEST SWAP3 POP DUP3 DUP3 ADD SWAP1 POP DUP1 DUP3 GT ISZERO PUSH2 0x12E7 JUMPI PUSH2 0x12E6 PUSH2 0x10E7 JUMP JUMPDEST JUMPDEST SWAP3 SWAP2 POP POP JUMP JUMPDEST PUSH1 0x0 PUSH2 0x12F8 DUP3 PUSH2 0xC5B JUMP JUMPDEST SWAP2 POP PUSH2 0x1303 DUP4 PUSH2 0xC5B JUMP JUMPDEST SWAP3 POP DUP3 DUP3 MUL PUSH2 0x1311 DUP2 PUSH2 0xC5B JUMP JUMPDEST SWAP2 POP DUP3 DUP3 DIV DUP5 EQ DUP4 ISZERO OR PUSH2 0x1328 JUMPI PUSH2 0x1327 PUSH2 0x10E7 JUMP JUMPDEST JUMPDEST POP SWAP3 SWAP2 POP POP JUMP JUMPDEST PUSH1 0x0 PUSH1 0x60 DUP3 ADD SWAP1 POP PUSH2 0x1344 PUSH1 0x0 DUP4 ADD DUP7 PUSH2 0xFFD JUMP JUMPDEST PUSH2 0x1351 PUSH1 0x20 DUP4 ADD DUP6 PUSH2 0xC65 JUMP JUMPDEST PUSH2 0x135E PUSH1 0x40 DUP4 ADD DUP5 PUSH2 0xD35 JUMP JUMPDEST SWAP5 SWAP4 POP POP POP POP JUMP INVALID LOG2 PUSH5 0x6970667358 0x22 SLT KECCAK256 SIGNEXTEND 0xA9 EXTCODECOPY 0xF9 0xE5 0xB7 PUSH3 0xC5802D PUSH12 0x229EC0CC7E53B945B3648F1E COINBASE REVERT PUSH5 0x25A37E6E71 SDIV PUSH5 0x736F6C6343 STOP ADDMOD SGT STOP CALLER "
        },
        "methodIdentifiers": {
          "GRID_SIZE()": "7fc4eda8",
          "MAX_SHIPS_PER_PLAYER()": "e28c2b46",
          "SHIP_SIZE()": "23ce9e94",
          "ShipHit((uint256,bool,bool[3],address,uint256),uint256)": "25d5f5f0",
          "Shoot(uint256)": "f565ee8d",
          "getActivePlayerCount()": "4e347f2a",
          "isPlayerAlive(address)": "246588f1",
          "isShipDestroyed((uint256,bool,bool[3],address,uint256))": "5f374ece",
          "isValidPlacement(uint256,bool)": "b1af54be",
          "joinGame(uint256,bool)": "94517b90",
          "players(address)": "e2eb41ff",
          "resetGame()": "bb472219",
          "shipIDCounter()": "3f2698b2",
          "ships(uint256)": "4d4e8dfa",
          "world(uint256)": "3ef4f4ca"
        }
      }
    }
  }
}