{
  "_format": "hh-sol-artifact-1",
  "contractName": "Battleship",
  "sourceName": "contracts/Battleship.sol",
  "abi": [
    {
      "anonymous": false,
      "inputs": [
        {
          "indexed": false,
          "internalType": "address",
          "name": "player",
          "type": "address"
        },
        {
          "indexed": false,
          "internalType": "uint256",
          "name": "position",
          "type": "uint256"
        }
      ],
      "name": "InvalidShipPlacement",
      "type": "event"
    },
    {
      "anonymous": false,
      "inputs": [
        {
          "indexed": false,
          "internalType": "address",
          "name": "player",
          "type": "address"
        },
        {
          "indexed": false,
          "internalType": "uint256",
          "name": "position",
          "type": "uint256"
        },
        {
          "indexed": false,
          "internalType": "bool",
          "name": "isVertical",
          "type": "bool"
        }
      ],
      "name": "PlayerAddsABoat",
      "type": "event"
    },
    {
      "anonymous": false,
      "inputs": [
        {
          "indexed": false,
          "internalType": "address",
          "name": "player",
          "type": "address"
        }
      ],
      "name": "PlayerJoined",
      "type": "event"
    },
    {
      "anonymous": false,
      "inputs": [
        {
          "indexed": false,
          "internalType": "address",
          "name": "player",
          "type": "address"
        },
        {
          "indexed": false,
          "internalType": "uint256",
          "name": "position",
          "type": "uint256"
        },
        {
          "indexed": false,
          "internalType": "uint256",
          "name": "hit",
          "type": "uint256"
        }
      ],
      "name": "PlayerShoots",
      "type": "event"
    },
    {
      "anonymous": false,
      "inputs": [
        {
          "indexed": false,
          "internalType": "address",
          "name": "player",
          "type": "address"
        },
        {
          "indexed": false,
          "internalType": "uint256",
          "name": "shipID",
          "type": "uint256"
        }
      ],
      "name": "ShipSunk",
      "type": "event"
    },
    {
      "inputs": [],
      "name": "GRID_SIZE",
      "outputs": [
        {
          "internalType": "uint256",
          "name": "",
          "type": "uint256"
        }
      ],
      "stateMutability": "view",
      "type": "function"
    },
    {
      "inputs": [],
      "name": "MAX_SHIPS_PER_PLAYER",
      "outputs": [
        {
          "internalType": "uint256",
          "name": "",
          "type": "uint256"
        }
      ],
      "stateMutability": "view",
      "type": "function"
    },
    {
      "inputs": [],
      "name": "SHIP_SIZE",
      "outputs": [
        {
          "internalType": "uint256",
          "name": "",
          "type": "uint256"
        }
      ],
      "stateMutability": "view",
      "type": "function"
    },
    {
      "inputs": [
        {
          "internalType": "uint256",
          "name": "position",
          "type": "uint256"
        }
      ],
      "name": "Shoot",
      "outputs": [
        {
          "internalType": "bool",
          "name": "",
          "type": "bool"
        }
      ],
      "stateMutability": "payable",
      "type": "function"
    },
    {
      "inputs": [
        {
          "internalType": "uint256",
          "name": "_position",
          "type": "uint256"
        },
        {
          "internalType": "bool",
          "name": "_isVertical",
          "type": "bool"
        }
      ],
      "name": "placeAShip",
      "outputs": [],
      "stateMutability": "nonpayable",
      "type": "function"
    },
    {
      "inputs": [
        {
          "internalType": "address",
          "name": "",
          "type": "address"
        }
      ],
      "name": "players",
      "outputs": [
        {
          "internalType": "uint256",
          "name": "shipCount",
          "type": "uint256"
        },
        {
          "internalType": "bool",
          "name": "isAlive",
          "type": "bool"
        }
      ],
      "stateMutability": "view",
      "type": "function"
    }
  ],
  "bytecode": "0x6080604052600160005534801561001557600080fd5b50611466806100256000396000f3fe6080604052600436106100555760003560e01c806315b6fc481461005a57806323ce9e94146100835780637fc4eda8146100ae578063e28c2b46146100d9578063e2eb41ff14610104578063f565ee8d14610142575b600080fd5b34801561006657600080fd5b50610081600480360381019061007c9190610e15565b610172565b005b34801561008f57600080fd5b50610098610594565b6040516100a59190610e64565b60405180910390f35b3480156100ba57600080fd5b506100c3610599565b6040516100d09190610e64565b60405180910390f35b3480156100e557600080fd5b506100ee61059e565b6040516100fb9190610e64565b60405180910390f35b34801561011057600080fd5b5061012b60048036038101906101269190610edd565b6105a3565b604051610139929190610f19565b60405180910390f35b61015c60048036038101906101579190610f42565b6105d4565b6040516101699190610f6f565b60405180910390f35b61017a6106aa565b600160003373ffffffffffffffffffffffffffffffffffffffff1673ffffffffffffffffffffffffffffffffffffffff16815260200190815260200160002060040160009054906101000a900460ff16610209576040517f08c379a000000000000000000000000000000000000000000000000000000000815260040161020090610fe7565b60405180910390fd5b6003600160003373ffffffffffffffffffffffffffffffffffffffff1673ffffffffffffffffffffffffffffffffffffffff168152602001908152602001600020600301541061028e576040517f08c379a000000000000000000000000000000000000000000000000000000000815260040161028590611079565b60405180910390fd5b61029882826107da565b6102d7576040517f08c379a00000000000000000000000000000000000000000000000000000000081526004016102ce906110e5565b60405180910390fd5b60008054905060016000546102ec9190611134565b6000819055506040518060a00160405280848152602001831515815260200160405180606001604052806000151515158152602001600015151515815260200160001515151581525081526020013373ffffffffffffffffffffffffffffffffffffffff16815260200182815250600360008381526020019081526020016000206000820151816000015560208201518160010160006101000a81548160ff0219169083151502179055506040820151816002019060036103ae929190610cc3565b5060608201518160030160006101000a81548173ffffffffffffffffffffffffffffffffffffffff021916908373ffffffffffffffffffffffffffffffffffffffff1602179055506080820151816004015590505080600160003373ffffffffffffffffffffffffffffffffffffffff1673ffffffffffffffffffffffffffffffffffffffff168152602001908152602001600020600001600160003373ffffffffffffffffffffffffffffffffffffffff1673ffffffffffffffffffffffffffffffffffffffff168152602001908152602001600020600301546003811061049a57610499611168565b5b0181905550600160003373ffffffffffffffffffffffffffffffffffffffff1673ffffffffffffffffffffffffffffffffffffffff16815260200190815260200160002060030160008154809291906104f290611197565b9190505550600061050282610944565b905060005b600381101561055257826002600084846003811061052857610527611168565b5b6020020151815260200190815260200160002081905550808061054a90611197565b915050610507565b507f9aa67a02ba8b9aedf25b60316883c55eaa0cb17631c416719d042bd062e3d9e3338585604051610586939291906111ee565b60405180910390a150505050565b600381565b601481565b600381565b60016020528060005260406000206000915090508060030154908060040160009054906101000a900460ff16905082565b60008060026000848152602001908152602001600020541461066457600061060f600260008581526020019081526020016000205484610a15565b90507feed46c96b7824df0ef8e515114793141fe35dfdc2a187d37bf032b51722504e6338483610640576001610643565b60025b6040516106529392919061126d565b60405180910390a160019150506106a5565b7feed46c96b7824df0ef8e515114793141fe35dfdc2a187d37bf032b51722504e633836000604051610698939291906112df565b60405180910390a1600090505b919050565b600160003373ffffffffffffffffffffffffffffffffffffffff1673ffffffffffffffffffffffffffffffffffffffff16815260200190815260200160002060040160009054906101000a900460ff166107d85760018060003373ffffffffffffffffffffffffffffffffffffffff1673ffffffffffffffffffffffffffffffffffffffff16815260200190815260200160002060040160006101000a81548160ff0219169083151502179055506000600160003373ffffffffffffffffffffffffffffffffffffffff1673ffffffffffffffffffffffffffffffffffffffff168152602001908152602001600020600301819055507f31e760aa525306aba638a784082a013b6a1cc0a9a1789f3f22281c0453b10b1f336040516107cf9190611316565b60405180910390a15b565b600081801561081957506014806107f19190611331565b6014600160036108019190611373565b61080b9190611331565b846108169190611134565b10155b15610827576000905061093e565b8115801561085a57506014600160036108409190611373565b60148561084d91906113d6565b6108579190611134565b10155b15610868576000905061093e565b81156108d75760005b6001600361087f9190611373565b8110156108d5576000600260006014846108999190611331565b876108a49190611134565b815260200190815260200160002054146108c257600091505061093e565b80806108cd90611197565b915050610871565b505b816109395760005b600160036108ed9190611373565b8110156109375760006002600083876109069190611134565b8152602001908152602001600020541461092457600091505061093e565b808061092f90611197565b9150506108df565b505b600190505b92915050565b61094c610d5c565b60006003600084815260200190815260200160002090508060010160009054906101000a900460ff16156109cd57604051806060016040528082600001548152602001601483600001546109a09190611134565b8152602001601460026109b39190611331565b83600001546109c29190611134565b815250915050610a10565b604051806060016040528082600001548152602001600183600001546109f39190611134565b815260200160028360000154610a099190611134565b8152509150505b919050565b600080610a2184610944565b905060005b6003811015610af157818160038110610a4257610a41611168565b5b60200201518403610ade576000600360008781526020019081526020016000209050806002018260038110610a7a57610a79611168565b5b602091828204019190069054906101000a900460ff1615610aa15760009350505050610c3f565b6001816002018360038110610ab957610ab8611168565b5b602091828204019190066101000a81548160ff02191690831515021790555050610af1565b8080610ae990611197565b915050610a26565b50610afb84610c45565b15610c395760006003600086815260200190815260200160002090507fd3530cd7a307ade37676af8529ec0105ea6204af5e1534bd5de42308107123718160030160009054906101000a900473ffffffffffffffffffffffffffffffffffffffff168260040154604051610b70929190611407565b60405180910390a160005b6003811015610bc55760026000848360038110610b9b57610b9a611168565b5b60200201518152602001908152602001600020600090558080610bbd90611197565b915050610b7b565b50600360008681526020019081526020016000206000808201600090556001820160006101000a81549060ff0219169055600282016000610c069190610d7e565b6003820160006101000a81549073ffffffffffffffffffffffffffffffffffffffff021916905560048201600090555050505b60019150505b92915050565b60008060036000848152602001908152602001600020905060005b6003811015610cb757816002018160038110610c7f57610c7e611168565b5b602091828204019190069054906101000a900460ff16610ca457600092505050610cbe565b8080610caf90611197565b915050610c60565b5060019150505b919050565b826003601f01602090048101928215610d4b5791602002820160005b83821115610d1c57835183826101000a81548160ff0219169083151502179055509260200192600101602081600001049283019260010302610cdf565b8015610d495782816101000a81549060ff0219169055600101602081600001049283019260010302610d1c565b505b509050610d589190610d85565b5090565b6040518060600160405280600390602082028036833780820191505090505090565b5060009055565b5b80821115610d9e576000816000905550600101610d86565b5090565b600080fd5b6000819050919050565b610dba81610da7565b8114610dc557600080fd5b50565b600081359050610dd781610db1565b92915050565b60008115159050919050565b610df281610ddd565b8114610dfd57600080fd5b50565b600081359050610e0f81610de9565b92915050565b60008060408385031215610e2c57610e2b610da2565b5b6000610e3a85828601610dc8565b9250506020610e4b85828601610e00565b9150509250929050565b610e5e81610da7565b82525050565b6000602082019050610e796000830184610e55565b92915050565b600073ffffffffffffffffffffffffffffffffffffffff82169050919050565b6000610eaa82610e7f565b9050919050565b610eba81610e9f565b8114610ec557600080fd5b50565b600081359050610ed781610eb1565b92915050565b600060208284031215610ef357610ef2610da2565b5b6000610f0184828501610ec8565b91505092915050565b610f1381610ddd565b82525050565b6000604082019050610f2e6000830185610e55565b610f3b6020830184610f0a565b9392505050565b600060208284031215610f5857610f57610da2565b5b6000610f6684828501610dc8565b91505092915050565b6000602082019050610f846000830184610f0a565b92915050565b600082825260208201905092915050565b7f506c61796572206d757374206a6f696e207468652067616d6520666972737400600082015250565b6000610fd1601f83610f8a565b9150610fdc82610f9b565b602082019050919050565b6000602082019050818103600083015261100081610fc4565b9050919050565b7f506c617965722068617320616c726561647920706c6163656420746865206d6160008201527f78696d756d206e756d626572206f662073686970730000000000000000000000602082015250565b6000611063603583610f8a565b915061106e82611007565b604082019050919050565b6000602082019050818103600083015261109281611056565b9050919050565b7f496e76616c6964207368697020706f736974696f6e0000000000000000000000600082015250565b60006110cf601583610f8a565b91506110da82611099565b602082019050919050565b600060208201905081810360008301526110fe816110c2565b9050919050565b7f4e487b7100000000000000000000000000000000000000000000000000000000600052601160045260246000fd5b600061113f82610da7565b915061114a83610da7565b925082820190508082111561116257611161611105565b5b92915050565b7f4e487b7100000000000000000000000000000000000000000000000000000000600052603260045260246000fd5b60006111a282610da7565b91507fffffffffffffffffffffffffffffffffffffffffffffffffffffffffffffffff82036111d4576111d3611105565b5b600182019050919050565b6111e881610e9f565b82525050565b600060608201905061120360008301866111df565b6112106020830185610e55565b61121d6040830184610f0a565b949350505050565b600060ff82169050919050565b6000819050919050565b600061125761125261124d84611225565b611232565b610da7565b9050919050565b6112678161123c565b82525050565b600060608201905061128260008301866111df565b61128f6020830185610e55565b61129c604083018461125e565b949350505050565b6000819050919050565b60006112c96112c46112bf846112a4565b611232565b610da7565b9050919050565b6112d9816112ae565b82525050565b60006060820190506112f460008301866111df565b6113016020830185610e55565b61130e60408301846112d0565b949350505050565b600060208201905061132b60008301846111df565b92915050565b600061133c82610da7565b915061134783610da7565b925082820261135581610da7565b9150828204841483151761136c5761136b611105565b5b5092915050565b600061137e82610da7565b915061138983610da7565b92508282039050818111156113a1576113a0611105565b5b92915050565b7f4e487b7100000000000000000000000000000000000000000000000000000000600052601260045260246000fd5b60006113e182610da7565b91506113ec83610da7565b9250826113fc576113fb6113a7565b5b828206905092915050565b600060408201905061141c60008301856111df565b6114296020830184610e55565b939250505056fea264697066735822122068d451ee3013d6b3c2e7ddb39a36e186a044cbceb335d89121129a2424cf9f5964736f6c63430008130033",
  "linkReferences": {},
  "deployedLinkReferences": {}
}