{"contracts/Battleship.sol":{"Battleship":{"abi":[{"anonymous":false,"inputs":[{"indexed":false,"internalType":"address","name":"player","type":"address"},{"indexed":false,"internalType":"uint256","name":"position","type":"uint256"}],"name":"InvalidShipPlacement","type":"event"},{"anonymous":false,"inputs":[{"indexed":false,"internalType":"address","name":"player","type":"address"},{"indexed":false,"internalType":"uint256","name":"position","type":"uint256"},{"indexed":false,"internalType":"bool","name":"isVertical","type":"bool"}],"name":"PlayerAddsABoat","type":"event"},{"anonymous":false,"inputs":[{"indexed":false,"internalType":"address","name":"player","type":"address"}],"name":"PlayerJoined","type":"event"},{"anonymous":false,"inputs":[{"indexed":false,"internalType":"address","name":"player","type":"address"},{"indexed":false,"internalType":"uint256","name":"position","type":"uint256"},{"indexed":false,"internalType":"uint256","name":"hit","type":"uint256"}],"name":"PlayerShoots","type":"event"},{"anonymous":false,"inputs":[{"indexed":false,"internalType":"address","name":"player","type":"address"},{"indexed":false,"internalType":"uint256","name":"shipID","type":"uint256"}],"name":"ShipSunk","type":"event"},{"inputs":[],"name":"GRID_SIZE","outputs":[{"internalType":"uint256","name":"","type":"uint256"}],"stateMutability":"view","type":"function"},{"inputs":[],"name":"MAX_SHIPS_PER_PLAYER","outputs":[{"internalType":"uint256","name":"","type":"uint256"}],"stateMutability":"view","type":"function"},{"inputs":[],"name":"SHIP_SIZE","outputs":[{"internalType":"uint256","name":"","type":"uint256"}],"stateMutability":"view","type":"function"},{"inputs":[{"internalType":"uint256","name":"position","type":"uint256"}],"name":"Shoot","outputs":[{"internalType":"bool","name":"","type":"bool"}],"stateMutability":"payable","type":"function"},{"inputs":[{"internalType":"uint256","name":"_position","type":"uint256"},{"internalType":"bool","name":"_isVertical","type":"bool"}],"name":"placeAShip","outputs":[],"stateMutability":"nonpayable","type":"function"},{"inputs":[{"internalType":"address","name":"","type":"address"}],"name":"players","outputs":[{"internalType":"uint256","name":"shipCount","type":"uint256"},{"internalType":"bool","name":"isAlive","type":"bool"}],"stateMutability":"view","type":"function"}],"evm":{"bytecode":{"linkReferences":{},"object":"6080604052600160005534801561001557600080fd5b50611466806100256000396000f3fe6080604052600436106100555760003560e01c806315b6fc481461005a57806323ce9e94146100835780637fc4eda8146100ae578063e28c2b46146100d9578063e2eb41ff14610104578063f565ee8d14610142575b600080fd5b34801561006657600080fd5b50610081600480360381019061007c9190610e15565b610172565b005b34801561008f57600080fd5b50610098610594565b6040516100a59190610e64565b60405180910390f35b3480156100ba57600080fd5b506100c3610599565b6040516100d09190610e64565b60405180910390f35b3480156100e557600080fd5b506100ee61059e565b6040516100fb9190610e64565b60405180910390f35b34801561011057600080fd5b5061012b60048036038101906101269190610edd565b6105a3565b604051610139929190610f19565b60405180910390f35b61015c60048036038101906101579190610f42565b6105d4565b6040516101699190610f6f565b60405180910390f35b61017a6106aa565b600160003373ffffffffffffffffffffffffffffffffffffffff1673ffffffffffffffffffffffffffffffffffffffff16815260200190815260200160002060040160009054906101000a900460ff16610209576040517f08c379a000000000000000000000000000000000000000000000000000000000815260040161020090610fe7565b60405180910390fd5b6003600160003373ffffffffffffffffffffffffffffffffffffffff1673ffffffffffffffffffffffffffffffffffffffff168152602001908152602001600020600301541061028e576040517f08c379a000000000000000000000000000000000000000000000000000000000815260040161028590611079565b60405180910390fd5b61029882826107da565b6102d7576040517f08c379a00000000000000000000000000000000000000000000000000000000081526004016102ce906110e5565b60405180910390fd5b60008054905060016000546102ec9190611134565b6000819055506040518060a00160405280848152602001831515815260200160405180606001604052806000151515158152602001600015151515815260200160001515151581525081526020013373ffffffffffffffffffffffffffffffffffffffff16815260200182815250600360008381526020019081526020016000206000820151816000015560208201518160010160006101000a81548160ff0219169083151502179055506040820151816002019060036103ae929190610cc3565b5060608201518160030160006101000a81548173ffffffffffffffffffffffffffffffffffffffff021916908373ffffffffffffffffffffffffffffffffffffffff1602179055506080820151816004015590505080600160003373ffffffffffffffffffffffffffffffffffffffff1673ffffffffffffffffffffffffffffffffffffffff168152602001908152602001600020600001600160003373ffffffffffffffffffffffffffffffffffffffff1673ffffffffffffffffffffffffffffffffffffffff168152602001908152602001600020600301546003811061049a57610499611168565b5b0181905550600160003373ffffffffffffffffffffffffffffffffffffffff1673ffffffffffffffffffffffffffffffffffffffff16815260200190815260200160002060030160008154809291906104f290611197565b9190505550600061050282610944565b905060005b600381101561055257826002600084846003811061052857610527611168565b5b6020020151815260200190815260200160002081905550808061054a90611197565b915050610507565b507f9aa67a02ba8b9aedf25b60316883c55eaa0cb17631c416719d042bd062e3d9e3338585604051610586939291906111ee565b60405180910390a150505050565b600381565b601481565b600381565b60016020528060005260406000206000915090508060030154908060040160009054906101000a900460ff16905082565b60008060026000848152602001908152602001600020541461066457600061060f600260008581526020019081526020016000205484610a15565b90507feed46c96b7824df0ef8e515114793141fe35dfdc2a187d37bf032b51722504e6338483610640576001610643565b60025b6040516106529392919061126d565b60405180910390a160019150506106a5565b7feed46c96b7824df0ef8e515114793141fe35dfdc2a187d37bf032b51722504e633836000604051610698939291906112df565b60405180910390a1600090505b919050565b600160003373ffffffffffffffffffffffffffffffffffffffff1673ffffffffffffffffffffffffffffffffffffffff16815260200190815260200160002060040160009054906101000a900460ff166107d85760018060003373ffffffffffffffffffffffffffffffffffffffff1673ffffffffffffffffffffffffffffffffffffffff16815260200190815260200160002060040160006101000a81548160ff0219169083151502179055506000600160003373ffffffffffffffffffffffffffffffffffffffff1673ffffffffffffffffffffffffffffffffffffffff168152602001908152602001600020600301819055507f31e760aa525306aba638a784082a013b6a1cc0a9a1789f3f22281c0453b10b1f336040516107cf9190611316565b60405180910390a15b565b600081801561081957506014806107f19190611331565b6014600160036108019190611373565b61080b9190611331565b846108169190611134565b10155b15610827576000905061093e565b8115801561085a57506014600160036108409190611373565b60148561084d91906113d6565b6108579190611134565b10155b15610868576000905061093e565b81156108d75760005b6001600361087f9190611373565b8110156108d5576000600260006014846108999190611331565b876108a49190611134565b815260200190815260200160002054146108c257600091505061093e565b80806108cd90611197565b915050610871565b505b816109395760005b600160036108ed9190611373565b8110156109375760006002600083876109069190611134565b8152602001908152602001600020541461092457600091505061093e565b808061092f90611197565b9150506108df565b505b600190505b92915050565b61094c610d5c565b60006003600084815260200190815260200160002090508060010160009054906101000a900460ff16156109cd57604051806060016040528082600001548152602001601483600001546109a09190611134565b8152602001601460026109b39190611331565b83600001546109c29190611134565b815250915050610a10565b604051806060016040528082600001548152602001600183600001546109f39190611134565b815260200160028360000154610a099190611134565b8152509150505b919050565b600080610a2184610944565b905060005b6003811015610af157818160038110610a4257610a41611168565b5b60200201518403610ade576000600360008781526020019081526020016000209050806002018260038110610a7a57610a79611168565b5b602091828204019190069054906101000a900460ff1615610aa15760009350505050610c3f565b6001816002018360038110610ab957610ab8611168565b5b602091828204019190066101000a81548160ff02191690831515021790555050610af1565b8080610ae990611197565b915050610a26565b50610afb84610c45565b15610c395760006003600086815260200190815260200160002090507fd3530cd7a307ade37676af8529ec0105ea6204af5e1534bd5de42308107123718160030160009054906101000a900473ffffffffffffffffffffffffffffffffffffffff168260040154604051610b70929190611407565b60405180910390a160005b6003811015610bc55760026000848360038110610b9b57610b9a611168565b5b60200201518152602001908152602001600020600090558080610bbd90611197565b915050610b7b565b50600360008681526020019081526020016000206000808201600090556001820160006101000a81549060ff0219169055600282016000610c069190610d7e565b6003820160006101000a81549073ffffffffffffffffffffffffffffffffffffffff021916905560048201600090555050505b60019150505b92915050565b60008060036000848152602001908152602001600020905060005b6003811015610cb757816002018160038110610c7f57610c7e611168565b5b602091828204019190069054906101000a900460ff16610ca457600092505050610cbe565b8080610caf90611197565b915050610c60565b5060019150505b919050565b826003601f01602090048101928215610d4b5791602002820160005b83821115610d1c57835183826101000a81548160ff0219169083151502179055509260200192600101602081600001049283019260010302610cdf565b8015610d495782816101000a81549060ff0219169055600101602081600001049283019260010302610d1c565b505b509050610d589190610d85565b5090565b6040518060600160405280600390602082028036833780820191505090505090565b5060009055565b5b80821115610d9e576000816000905550600101610d86565b5090565b600080fd5b6000819050919050565b610dba81610da7565b8114610dc557600080fd5b50565b600081359050610dd781610db1565b92915050565b60008115159050919050565b610df281610ddd565b8114610dfd57600080fd5b50565b600081359050610e0f81610de9565b92915050565b60008060408385031215610e2c57610e2b610da2565b5b6000610e3a85828601610dc8565b9250506020610e4b85828601610e00565b9150509250929050565b610e5e81610da7565b82525050565b6000602082019050610e796000830184610e55565b92915050565b600073ffffffffffffffffffffffffffffffffffffffff82169050919050565b6000610eaa82610e7f565b9050919050565b610eba81610e9f565b8114610ec557600080fd5b50565b600081359050610ed781610eb1565b92915050565b600060208284031215610ef357610ef2610da2565b5b6000610f0184828501610ec8565b91505092915050565b610f1381610ddd565b82525050565b6000604082019050610f2e6000830185610e55565b610f3b6020830184610f0a565b9392505050565b600060208284031215610f5857610f57610da2565b5b6000610f6684828501610dc8565b91505092915050565b6000602082019050610f846000830184610f0a565b92915050565b600082825260208201905092915050565b7f506c61796572206d757374206a6f696e207468652067616d6520666972737400600082015250565b6000610fd1601f83610f8a565b9150610fdc82610f9b565b602082019050919050565b6000602082019050818103600083015261100081610fc4565b9050919050565b7f506c617965722068617320616c726561647920706c6163656420746865206d6160008201527f78696d756d206e756d626572206f662073686970730000000000000000000000602082015250565b6000611063603583610f8a565b915061106e82611007565b604082019050919050565b6000602082019050818103600083015261109281611056565b9050919050565b7f496e76616c6964207368697020706f736974696f6e0000000000000000000000600082015250565b60006110cf601583610f8a565b91506110da82611099565b602082019050919050565b600060208201905081810360008301526110fe816110c2565b9050919050565b7f4e487b7100000000000000000000000000000000000000000000000000000000600052601160045260246000fd5b600061113f82610da7565b915061114a83610da7565b925082820190508082111561116257611161611105565b5b92915050565b7f4e487b7100000000000000000000000000000000000000000000000000000000600052603260045260246000fd5b60006111a282610da7565b91507fffffffffffffffffffffffffffffffffffffffffffffffffffffffffffffffff82036111d4576111d3611105565b5b600182019050919050565b6111e881610e9f565b82525050565b600060608201905061120360008301866111df565b6112106020830185610e55565b61121d6040830184610f0a565b949350505050565b600060ff82169050919050565b6000819050919050565b600061125761125261124d84611225565b611232565b610da7565b9050919050565b6112678161123c565b82525050565b600060608201905061128260008301866111df565b61128f6020830185610e55565b61129c604083018461125e565b949350505050565b6000819050919050565b60006112c96112c46112bf846112a4565b611232565b610da7565b9050919050565b6112d9816112ae565b82525050565b60006060820190506112f460008301866111df565b6113016020830185610e55565b61130e60408301846112d0565b949350505050565b600060208201905061132b60008301846111df565b92915050565b600061133c82610da7565b915061134783610da7565b925082820261135581610da7565b9150828204841483151761136c5761136b611105565b5b5092915050565b600061137e82610da7565b915061138983610da7565b92508282039050818111156113a1576113a0611105565b5b92915050565b7f4e487b7100000000000000000000000000000000000000000000000000000000600052601260045260246000fd5b60006113e182610da7565b91506113ec83610da7565b9250826113fc576113fb6113a7565b5b828206905092915050565b600060408201905061141c60008301856111df565b6114296020830184610e55565b939250505056fea264697066735822122068d451ee3013d6b3c2e7ddb39a36e186a044cbceb335d89121129a2424cf9f5964736f6c63430008130033","opcodes":"PUSH1 0x80 PUSH1 0x40 MSTORE PUSH1 0x1 PUSH1 0x0 SSTORE CALLVALUE DUP1 ISZERO PUSH2 0x15 JUMPI PUSH1 0x0 DUP1 REVERT JUMPDEST POP PUSH2 0x1466 DUP1 PUSH2 0x25 PUSH1 0x0 CODECOPY PUSH1 0x0 RETURN INVALID PUSH1 0x80 PUSH1 0x40 MSTORE PUSH1 0x4 CALLDATASIZE LT PUSH2 0x55 JUMPI PUSH1 0x0 CALLDATALOAD PUSH1 0xE0 SHR DUP1 PUSH4 0x15B6FC48 EQ PUSH2 0x5A JUMPI DUP1 PUSH4 0x23CE9E94 EQ PUSH2 0x83 JUMPI DUP1 PUSH4 0x7FC4EDA8 EQ PUSH2 0xAE JUMPI DUP1 PUSH4 0xE28C2B46 EQ PUSH2 0xD9 JUMPI DUP1 PUSH4 0xE2EB41FF EQ PUSH2 0x104 JUMPI DUP1 PUSH4 0xF565EE8D EQ PUSH2 0x142 JUMPI JUMPDEST PUSH1 0x0 DUP1 REVERT JUMPDEST CALLVALUE DUP1 ISZERO PUSH2 0x66 JUMPI PUSH1 0x0 DUP1 REVERT JUMPDEST POP PUSH2 0x81 PUSH1 0x4 DUP1 CALLDATASIZE SUB DUP2 ADD SWAP1 PUSH2 0x7C SWAP2 SWAP1 PUSH2 0xE15 JUMP JUMPDEST PUSH2 0x172 JUMP JUMPDEST STOP JUMPDEST CALLVALUE DUP1 ISZERO PUSH2 0x8F JUMPI PUSH1 0x0 DUP1 REVERT JUMPDEST POP PUSH2 0x98 PUSH2 0x594 JUMP JUMPDEST PUSH1 0x40 MLOAD PUSH2 0xA5 SWAP2 SWAP1 PUSH2 0xE64 JUMP JUMPDEST PUSH1 0x40 MLOAD DUP1 SWAP2 SUB SWAP1 RETURN JUMPDEST CALLVALUE DUP1 ISZERO PUSH2 0xBA JUMPI PUSH1 0x0 DUP1 REVERT JUMPDEST POP PUSH2 0xC3 PUSH2 0x599 JUMP JUMPDEST PUSH1 0x40 MLOAD PUSH2 0xD0 SWAP2 SWAP1 PUSH2 0xE64 JUMP JUMPDEST PUSH1 0x40 MLOAD DUP1 SWAP2 SUB SWAP1 RETURN JUMPDEST CALLVALUE DUP1 ISZERO PUSH2 0xE5 JUMPI PUSH1 0x0 DUP1 REVERT JUMPDEST POP PUSH2 0xEE PUSH2 0x59E JUMP JUMPDEST PUSH1 0x40 MLOAD PUSH2 0xFB SWAP2 SWAP1 PUSH2 0xE64 JUMP JUMPDEST PUSH1 0x40 MLOAD DUP1 SWAP2 SUB SWAP1 RETURN JUMPDEST CALLVALUE DUP1 ISZERO PUSH2 0x110 JUMPI PUSH1 0x0 DUP1 REVERT JUMPDEST POP PUSH2 0x12B PUSH1 0x4 DUP1 CALLDATASIZE SUB DUP2 ADD SWAP1 PUSH2 0x126 SWAP2 SWAP1 PUSH2 0xEDD JUMP JUMPDEST PUSH2 0x5A3 JUMP JUMPDEST PUSH1 0x40 MLOAD PUSH2 0x139 SWAP3 SWAP2 SWAP1 PUSH2 0xF19 JUMP JUMPDEST PUSH1 0x40 MLOAD DUP1 SWAP2 SUB SWAP1 RETURN JUMPDEST PUSH2 0x15C PUSH1 0x4 DUP1 CALLDATASIZE SUB DUP2 ADD SWAP1 PUSH2 0x157 SWAP2 SWAP1 PUSH2 0xF42 JUMP JUMPDEST PUSH2 0x5D4 JUMP JUMPDEST PUSH1 0x40 MLOAD PUSH2 0x169 SWAP2 SWAP1 PUSH2 0xF6F JUMP JUMPDEST PUSH1 0x40 MLOAD DUP1 SWAP2 SUB SWAP1 RETURN JUMPDEST PUSH2 0x17A PUSH2 0x6AA JUMP JUMPDEST PUSH1 0x1 PUSH1 0x0 CALLER PUSH20 0xFFFFFFFFFFFFFFFFFFFFFFFFFFFFFFFFFFFFFFFF AND PUSH20 0xFFFFFFFFFFFFFFFFFFFFFFFFFFFFFFFFFFFFFFFF AND DUP2 MSTORE PUSH1 0x20 ADD SWAP1 DUP2 MSTORE PUSH1 0x20 ADD PUSH1 0x0 KECCAK256 PUSH1 0x4 ADD PUSH1 0x0 SWAP1 SLOAD SWAP1 PUSH2 0x100 EXP SWAP1 DIV PUSH1 0xFF AND PUSH2 0x209 JUMPI PUSH1 0x40 MLOAD PUSH32 0x8C379A000000000000000000000000000000000000000000000000000000000 DUP2 MSTORE PUSH1 0x4 ADD PUSH2 0x200 SWAP1 PUSH2 0xFE7 JUMP JUMPDEST PUSH1 0x40 MLOAD DUP1 SWAP2 SUB SWAP1 REVERT JUMPDEST PUSH1 0x3 PUSH1 0x1 PUSH1 0x0 CALLER PUSH20 0xFFFFFFFFFFFFFFFFFFFFFFFFFFFFFFFFFFFFFFFF AND PUSH20 0xFFFFFFFFFFFFFFFFFFFFFFFFFFFFFFFFFFFFFFFF AND DUP2 MSTORE PUSH1 0x20 ADD SWAP1 DUP2 MSTORE PUSH1 0x20 ADD PUSH1 0x0 KECCAK256 PUSH1 0x3 ADD SLOAD LT PUSH2 0x28E JUMPI PUSH1 0x40 MLOAD PUSH32 0x8C379A000000000000000000000000000000000000000000000000000000000 DUP2 MSTORE PUSH1 0x4 ADD PUSH2 0x285 SWAP1 PUSH2 0x1079 JUMP JUMPDEST PUSH1 0x40 MLOAD DUP1 SWAP2 SUB SWAP1 REVERT JUMPDEST PUSH2 0x298 DUP3 DUP3 PUSH2 0x7DA JUMP JUMPDEST PUSH2 0x2D7 JUMPI PUSH1 0x40 MLOAD PUSH32 0x8C379A000000000000000000000000000000000000000000000000000000000 DUP2 MSTORE PUSH1 0x4 ADD PUSH2 0x2CE SWAP1 PUSH2 0x10E5 JUMP JUMPDEST PUSH1 0x40 MLOAD DUP1 SWAP2 SUB SWAP1 REVERT JUMPDEST PUSH1 0x0 DUP1 SLOAD SWAP1 POP PUSH1 0x1 PUSH1 0x0 SLOAD PUSH2 0x2EC SWAP2 SWAP1 PUSH2 0x1134 JUMP JUMPDEST PUSH1 0x0 DUP2 SWAP1 SSTORE POP PUSH1 0x40 MLOAD DUP1 PUSH1 0xA0 ADD PUSH1 0x40 MSTORE DUP1 DUP5 DUP2 MSTORE PUSH1 0x20 ADD DUP4 ISZERO ISZERO DUP2 MSTORE PUSH1 0x20 ADD PUSH1 0x40 MLOAD DUP1 PUSH1 0x60 ADD PUSH1 0x40 MSTORE DUP1 PUSH1 0x0 ISZERO ISZERO ISZERO ISZERO DUP2 MSTORE PUSH1 0x20 ADD PUSH1 0x0 ISZERO ISZERO ISZERO ISZERO DUP2 MSTORE PUSH1 0x20 ADD PUSH1 0x0 ISZERO ISZERO ISZERO ISZERO DUP2 MSTORE POP DUP2 MSTORE PUSH1 0x20 ADD CALLER PUSH20 0xFFFFFFFFFFFFFFFFFFFFFFFFFFFFFFFFFFFFFFFF AND DUP2 MSTORE PUSH1 0x20 ADD DUP3 DUP2 MSTORE POP PUSH1 0x3 PUSH1 0x0 DUP4 DUP2 MSTORE PUSH1 0x20 ADD SWAP1 DUP2 MSTORE PUSH1 0x20 ADD PUSH1 0x0 KECCAK256 PUSH1 0x0 DUP3 ADD MLOAD DUP2 PUSH1 0x0 ADD SSTORE PUSH1 0x20 DUP3 ADD MLOAD DUP2 PUSH1 0x1 ADD PUSH1 0x0 PUSH2 0x100 EXP DUP2 SLOAD DUP2 PUSH1 0xFF MUL NOT AND SWAP1 DUP4 ISZERO ISZERO MUL OR SWAP1 SSTORE POP PUSH1 0x40 DUP3 ADD MLOAD DUP2 PUSH1 0x2 ADD SWAP1 PUSH1 0x3 PUSH2 0x3AE SWAP3 SWAP2 SWAP1 PUSH2 0xCC3 JUMP JUMPDEST POP PUSH1 0x60 DUP3 ADD MLOAD DUP2 PUSH1 0x3 ADD PUSH1 0x0 PUSH2 0x100 EXP DUP2 SLOAD DUP2 PUSH20 0xFFFFFFFFFFFFFFFFFFFFFFFFFFFFFFFFFFFFFFFF MUL NOT AND SWAP1 DUP4 PUSH20 0xFFFFFFFFFFFFFFFFFFFFFFFFFFFFFFFFFFFFFFFF AND MUL OR SWAP1 SSTORE POP PUSH1 0x80 DUP3 ADD MLOAD DUP2 PUSH1 0x4 ADD SSTORE SWAP1 POP POP DUP1 PUSH1 0x1 PUSH1 0x0 CALLER PUSH20 0xFFFFFFFFFFFFFFFFFFFFFFFFFFFFFFFFFFFFFFFF AND PUSH20 0xFFFFFFFFFFFFFFFFFFFFFFFFFFFFFFFFFFFFFFFF AND DUP2 MSTORE PUSH1 0x20 ADD SWAP1 DUP2 MSTORE PUSH1 0x20 ADD PUSH1 0x0 KECCAK256 PUSH1 0x0 ADD PUSH1 0x1 PUSH1 0x0 CALLER PUSH20 0xFFFFFFFFFFFFFFFFFFFFFFFFFFFFFFFFFFFFFFFF AND PUSH20 0xFFFFFFFFFFFFFFFFFFFFFFFFFFFFFFFFFFFFFFFF AND DUP2 MSTORE PUSH1 0x20 ADD SWAP1 DUP2 MSTORE PUSH1 0x20 ADD PUSH1 0x0 KECCAK256 PUSH1 0x3 ADD SLOAD PUSH1 0x3 DUP2 LT PUSH2 0x49A JUMPI PUSH2 0x499 PUSH2 0x1168 JUMP JUMPDEST JUMPDEST ADD DUP2 SWAP1 SSTORE POP PUSH1 0x1 PUSH1 0x0 CALLER PUSH20 0xFFFFFFFFFFFFFFFFFFFFFFFFFFFFFFFFFFFFFFFF AND PUSH20 0xFFFFFFFFFFFFFFFFFFFFFFFFFFFFFFFFFFFFFFFF AND DUP2 MSTORE PUSH1 0x20 ADD SWAP1 DUP2 MSTORE PUSH1 0x20 ADD PUSH1 0x0 KECCAK256 PUSH1 0x3 ADD PUSH1 0x0 DUP2 SLOAD DUP1 SWAP3 SWAP2 SWAP1 PUSH2 0x4F2 SWAP1 PUSH2 0x1197 JUMP JUMPDEST SWAP2 SWAP1 POP SSTORE POP PUSH1 0x0 PUSH2 0x502 DUP3 PUSH2 0x944 JUMP JUMPDEST SWAP1 POP PUSH1 0x0 JUMPDEST PUSH1 0x3 DUP2 LT ISZERO PUSH2 0x552 JUMPI DUP3 PUSH1 0x2 PUSH1 0x0 DUP5 DUP5 PUSH1 0x3 DUP2 LT PUSH2 0x528 JUMPI PUSH2 0x527 PUSH2 0x1168 JUMP JUMPDEST JUMPDEST PUSH1 0x20 MUL ADD MLOAD DUP2 MSTORE PUSH1 0x20 ADD SWAP1 DUP2 MSTORE PUSH1 0x20 ADD PUSH1 0x0 KECCAK256 DUP2 SWAP1 SSTORE POP DUP1 DUP1 PUSH2 0x54A SWAP1 PUSH2 0x1197 JUMP JUMPDEST SWAP2 POP POP PUSH2 0x507 JUMP JUMPDEST POP PUSH32 0x9AA67A02BA8B9AEDF25B60316883C55EAA0CB17631C416719D042BD062E3D9E3 CALLER DUP6 DUP6 PUSH1 0x40 MLOAD PUSH2 0x586 SWAP4 SWAP3 SWAP2 SWAP1 PUSH2 0x11EE JUMP JUMPDEST PUSH1 0x40 MLOAD DUP1 SWAP2 SUB SWAP1 LOG1 POP POP POP POP JUMP JUMPDEST PUSH1 0x3 DUP2 JUMP JUMPDEST PUSH1 0x14 DUP2 JUMP JUMPDEST PUSH1 0x3 DUP2 JUMP JUMPDEST PUSH1 0x1 PUSH1 0x20 MSTORE DUP1 PUSH1 0x0 MSTORE PUSH1 0x40 PUSH1 0x0 KECCAK256 PUSH1 0x0 SWAP2 POP SWAP1 POP DUP1 PUSH1 0x3 ADD SLOAD SWAP1 DUP1 PUSH1 0x4 ADD PUSH1 0x0 SWAP1 SLOAD SWAP1 PUSH2 0x100 EXP SWAP1 DIV PUSH1 0xFF AND SWAP1 POP DUP3 JUMP JUMPDEST PUSH1 0x0 DUP1 PUSH1 0x2 PUSH1 0x0 DUP5 DUP2 MSTORE PUSH1 0x20 ADD SWAP1 DUP2 MSTORE PUSH1 0x20 ADD PUSH1 0x0 KECCAK256 SLOAD EQ PUSH2 0x664 JUMPI PUSH1 0x0 PUSH2 0x60F PUSH1 0x2 PUSH1 0x0 DUP6 DUP2 MSTORE PUSH1 0x20 ADD SWAP1 DUP2 MSTORE PUSH1 0x20 ADD PUSH1 0x0 KECCAK256 SLOAD DUP5 PUSH2 0xA15 JUMP JUMPDEST SWAP1 POP PUSH32 0xEED46C96B7824DF0EF8E515114793141FE35DFDC2A187D37BF032B51722504E6 CALLER DUP5 DUP4 PUSH2 0x640 JUMPI PUSH1 0x1 PUSH2 0x643 JUMP JUMPDEST PUSH1 0x2 JUMPDEST PUSH1 0x40 MLOAD PUSH2 0x652 SWAP4 SWAP3 SWAP2 SWAP1 PUSH2 0x126D JUMP JUMPDEST PUSH1 0x40 MLOAD DUP1 SWAP2 SUB SWAP1 LOG1 PUSH1 0x1 SWAP2 POP POP PUSH2 0x6A5 JUMP JUMPDEST PUSH32 0xEED46C96B7824DF0EF8E515114793141FE35DFDC2A187D37BF032B51722504E6 CALLER DUP4 PUSH1 0x0 PUSH1 0x40 MLOAD PUSH2 0x698 SWAP4 SWAP3 SWAP2 SWAP1 PUSH2 0x12DF JUMP JUMPDEST PUSH1 0x40 MLOAD DUP1 SWAP2 SUB SWAP1 LOG1 PUSH1 0x0 SWAP1 POP JUMPDEST SWAP2 SWAP1 POP JUMP JUMPDEST PUSH1 0x1 PUSH1 0x0 CALLER PUSH20 0xFFFFFFFFFFFFFFFFFFFFFFFFFFFFFFFFFFFFFFFF AND PUSH20 0xFFFFFFFFFFFFFFFFFFFFFFFFFFFFFFFFFFFFFFFF AND DUP2 MSTORE PUSH1 0x20 ADD SWAP1 DUP2 MSTORE PUSH1 0x20 ADD PUSH1 0x0 KECCAK256 PUSH1 0x4 ADD PUSH1 0x0 SWAP1 SLOAD SWAP1 PUSH2 0x100 EXP SWAP1 DIV PUSH1 0xFF AND PUSH2 0x7D8 JUMPI PUSH1 0x1 DUP1 PUSH1 0x0 CALLER PUSH20 0xFFFFFFFFFFFFFFFFFFFFFFFFFFFFFFFFFFFFFFFF AND PUSH20 0xFFFFFFFFFFFFFFFFFFFFFFFFFFFFFFFFFFFFFFFF AND DUP2 MSTORE PUSH1 0x20 ADD SWAP1 DUP2 MSTORE PUSH1 0x20 ADD PUSH1 0x0 KECCAK256 PUSH1 0x4 ADD PUSH1 0x0 PUSH2 0x100 EXP DUP2 SLOAD DUP2 PUSH1 0xFF MUL NOT AND SWAP1 DUP4 ISZERO ISZERO MUL OR SWAP1 SSTORE POP PUSH1 0x0 PUSH1 0x1 PUSH1 0x0 CALLER PUSH20 0xFFFFFFFFFFFFFFFFFFFFFFFFFFFFFFFFFFFFFFFF AND PUSH20 0xFFFFFFFFFFFFFFFFFFFFFFFFFFFFFFFFFFFFFFFF AND DUP2 MSTORE PUSH1 0x20 ADD SWAP1 DUP2 MSTORE PUSH1 0x20 ADD PUSH1 0x0 KECCAK256 PUSH1 0x3 ADD DUP2 SWAP1 SSTORE POP PUSH32 0x31E760AA525306ABA638A784082A013B6A1CC0A9A1789F3F22281C0453B10B1F CALLER PUSH1 0x40 MLOAD PUSH2 0x7CF SWAP2 SWAP1 PUSH2 0x1316 JUMP JUMPDEST PUSH1 0x40 MLOAD DUP1 SWAP2 SUB SWAP1 LOG1 JUMPDEST JUMP JUMPDEST PUSH1 0x0 DUP2 DUP1 ISZERO PUSH2 0x819 JUMPI POP PUSH1 0x14 DUP1 PUSH2 0x7F1 SWAP2 SWAP1 PUSH2 0x1331 JUMP JUMPDEST PUSH1 0x14 PUSH1 0x1 PUSH1 0x3 PUSH2 0x801 SWAP2 SWAP1 PUSH2 0x1373 JUMP JUMPDEST PUSH2 0x80B SWAP2 SWAP1 PUSH2 0x1331 JUMP JUMPDEST DUP5 PUSH2 0x816 SWAP2 SWAP1 PUSH2 0x1134 JUMP JUMPDEST LT ISZERO JUMPDEST ISZERO PUSH2 0x827 JUMPI PUSH1 0x0 SWAP1 POP PUSH2 0x93E JUMP JUMPDEST DUP2 ISZERO DUP1 ISZERO PUSH2 0x85A JUMPI POP PUSH1 0x14 PUSH1 0x1 PUSH1 0x3 PUSH2 0x840 SWAP2 SWAP1 PUSH2 0x1373 JUMP JUMPDEST PUSH1 0x14 DUP6 PUSH2 0x84D SWAP2 SWAP1 PUSH2 0x13D6 JUMP JUMPDEST PUSH2 0x857 SWAP2 SWAP1 PUSH2 0x1134 JUMP JUMPDEST LT ISZERO JUMPDEST ISZERO PUSH2 0x868 JUMPI PUSH1 0x0 SWAP1 POP PUSH2 0x93E JUMP JUMPDEST DUP2 ISZERO PUSH2 0x8D7 JUMPI PUSH1 0x0 JUMPDEST PUSH1 0x1 PUSH1 0x3 PUSH2 0x87F SWAP2 SWAP1 PUSH2 0x1373 JUMP JUMPDEST DUP2 LT ISZERO PUSH2 0x8D5 JUMPI PUSH1 0x0 PUSH1 0x2 PUSH1 0x0 PUSH1 0x14 DUP5 PUSH2 0x899 SWAP2 SWAP1 PUSH2 0x1331 JUMP JUMPDEST DUP8 PUSH2 0x8A4 SWAP2 SWAP1 PUSH2 0x1134 JUMP JUMPDEST DUP2 MSTORE PUSH1 0x20 ADD SWAP1 DUP2 MSTORE PUSH1 0x20 ADD PUSH1 0x0 KECCAK256 SLOAD EQ PUSH2 0x8C2 JUMPI PUSH1 0x0 SWAP2 POP POP PUSH2 0x93E JUMP JUMPDEST DUP1 DUP1 PUSH2 0x8CD SWAP1 PUSH2 0x1197 JUMP JUMPDEST SWAP2 POP POP PUSH2 0x871 JUMP JUMPDEST POP JUMPDEST DUP2 PUSH2 0x939 JUMPI PUSH1 0x0 JUMPDEST PUSH1 0x1 PUSH1 0x3 PUSH2 0x8ED SWAP2 SWAP1 PUSH2 0x1373 JUMP JUMPDEST DUP2 LT ISZERO PUSH2 0x937 JUMPI PUSH1 0x0 PUSH1 0x2 PUSH1 0x0 DUP4 DUP8 PUSH2 0x906 SWAP2 SWAP1 PUSH2 0x1134 JUMP JUMPDEST DUP2 MSTORE PUSH1 0x20 ADD SWAP1 DUP2 MSTORE PUSH1 0x20 ADD PUSH1 0x0 KECCAK256 SLOAD EQ PUSH2 0x924 JUMPI PUSH1 0x0 SWAP2 POP POP PUSH2 0x93E JUMP JUMPDEST DUP1 DUP1 PUSH2 0x92F SWAP1 PUSH2 0x1197 JUMP JUMPDEST SWAP2 POP POP PUSH2 0x8DF JUMP JUMPDEST POP JUMPDEST PUSH1 0x1 SWAP1 POP JUMPDEST SWAP3 SWAP2 POP POP JUMP JUMPDEST PUSH2 0x94C PUSH2 0xD5C JUMP JUMPDEST PUSH1 0x0 PUSH1 0x3 PUSH1 0x0 DUP5 DUP2 MSTORE PUSH1 0x20 ADD SWAP1 DUP2 MSTORE PUSH1 0x20 ADD PUSH1 0x0 KECCAK256 SWAP1 POP DUP1 PUSH1 0x1 ADD PUSH1 0x0 SWAP1 SLOAD SWAP1 PUSH2 0x100 EXP SWAP1 DIV PUSH1 0xFF AND ISZERO PUSH2 0x9CD JUMPI PUSH1 0x40 MLOAD DUP1 PUSH1 0x60 ADD PUSH1 0x40 MSTORE DUP1 DUP3 PUSH1 0x0 ADD SLOAD DUP2 MSTORE PUSH1 0x20 ADD PUSH1 0x14 DUP4 PUSH1 0x0 ADD SLOAD PUSH2 0x9A0 SWAP2 SWAP1 PUSH2 0x1134 JUMP JUMPDEST DUP2 MSTORE PUSH1 0x20 ADD PUSH1 0x14 PUSH1 0x2 PUSH2 0x9B3 SWAP2 SWAP1 PUSH2 0x1331 JUMP JUMPDEST DUP4 PUSH1 0x0 ADD SLOAD PUSH2 0x9C2 SWAP2 SWAP1 PUSH2 0x1134 JUMP JUMPDEST DUP2 MSTORE POP SWAP2 POP POP PUSH2 0xA10 JUMP JUMPDEST PUSH1 0x40 MLOAD DUP1 PUSH1 0x60 ADD PUSH1 0x40 MSTORE DUP1 DUP3 PUSH1 0x0 ADD SLOAD DUP2 MSTORE PUSH1 0x20 ADD PUSH1 0x1 DUP4 PUSH1 0x0 ADD SLOAD PUSH2 0x9F3 SWAP2 SWAP1 PUSH2 0x1134 JUMP JUMPDEST DUP2 MSTORE PUSH1 0x20 ADD PUSH1 0x2 DUP4 PUSH1 0x0 ADD SLOAD PUSH2 0xA09 SWAP2 SWAP1 PUSH2 0x1134 JUMP JUMPDEST DUP2 MSTORE POP SWAP2 POP POP JUMPDEST SWAP2 SWAP1 POP JUMP JUMPDEST PUSH1 0x0 DUP1 PUSH2 0xA21 DUP5 PUSH2 0x944 JUMP JUMPDEST SWAP1 POP PUSH1 0x0 JUMPDEST PUSH1 0x3 DUP2 LT ISZERO PUSH2 0xAF1 JUMPI DUP2 DUP2 PUSH1 0x3 DUP2 LT PUSH2 0xA42 JUMPI PUSH2 0xA41 PUSH2 0x1168 JUMP JUMPDEST JUMPDEST PUSH1 0x20 MUL ADD MLOAD DUP5 SUB PUSH2 0xADE JUMPI PUSH1 0x0 PUSH1 0x3 PUSH1 0x0 DUP8 DUP2 MSTORE PUSH1 0x20 ADD SWAP1 DUP2 MSTORE PUSH1 0x20 ADD PUSH1 0x0 KECCAK256 SWAP1 POP DUP1 PUSH1 0x2 ADD DUP3 PUSH1 0x3 DUP2 LT PUSH2 0xA7A JUMPI PUSH2 0xA79 PUSH2 0x1168 JUMP JUMPDEST JUMPDEST PUSH1 0x20 SWAP2 DUP3 DUP3 DIV ADD SWAP2 SWAP1 MOD SWAP1 SLOAD SWAP1 PUSH2 0x100 EXP SWAP1 DIV PUSH1 0xFF AND ISZERO PUSH2 0xAA1 JUMPI PUSH1 0x0 SWAP4 POP POP POP POP PUSH2 0xC3F JUMP JUMPDEST PUSH1 0x1 DUP2 PUSH1 0x2 ADD DUP4 PUSH1 0x3 DUP2 LT PUSH2 0xAB9 JUMPI PUSH2 0xAB8 PUSH2 0x1168 JUMP JUMPDEST JUMPDEST PUSH1 0x20 SWAP2 DUP3 DUP3 DIV ADD SWAP2 SWAP1 MOD PUSH2 0x100 EXP DUP2 SLOAD DUP2 PUSH1 0xFF MUL NOT AND SWAP1 DUP4 ISZERO ISZERO MUL OR SWAP1 SSTORE POP POP PUSH2 0xAF1 JUMP JUMPDEST DUP1 DUP1 PUSH2 0xAE9 SWAP1 PUSH2 0x1197 JUMP JUMPDEST SWAP2 POP POP PUSH2 0xA26 JUMP JUMPDEST POP PUSH2 0xAFB DUP5 PUSH2 0xC45 JUMP JUMPDEST ISZERO PUSH2 0xC39 JUMPI PUSH1 0x0 PUSH1 0x3 PUSH1 0x0 DUP7 DUP2 MSTORE PUSH1 0x20 ADD SWAP1 DUP2 MSTORE PUSH1 0x20 ADD PUSH1 0x0 KECCAK256 SWAP1 POP PUSH32 0xD3530CD7A307ADE37676AF8529EC0105EA6204AF5E1534BD5DE4230810712371 DUP2 PUSH1 0x3 ADD PUSH1 0x0 SWAP1 SLOAD SWAP1 PUSH2 0x100 EXP SWAP1 DIV PUSH20 0xFFFFFFFFFFFFFFFFFFFFFFFFFFFFFFFFFFFFFFFF AND DUP3 PUSH1 0x4 ADD SLOAD PUSH1 0x40 MLOAD PUSH2 0xB70 SWAP3 SWAP2 SWAP1 PUSH2 0x1407 JUMP JUMPDEST PUSH1 0x40 MLOAD DUP1 SWAP2 SUB SWAP1 LOG1 PUSH1 0x0 JUMPDEST PUSH1 0x3 DUP2 LT ISZERO PUSH2 0xBC5 JUMPI PUSH1 0x2 PUSH1 0x0 DUP5 DUP4 PUSH1 0x3 DUP2 LT PUSH2 0xB9B JUMPI PUSH2 0xB9A PUSH2 0x1168 JUMP JUMPDEST JUMPDEST PUSH1 0x20 MUL ADD MLOAD DUP2 MSTORE PUSH1 0x20 ADD SWAP1 DUP2 MSTORE PUSH1 0x20 ADD PUSH1 0x0 KECCAK256 PUSH1 0x0 SWAP1 SSTORE DUP1 DUP1 PUSH2 0xBBD SWAP1 PUSH2 0x1197 JUMP JUMPDEST SWAP2 POP POP PUSH2 0xB7B JUMP JUMPDEST POP PUSH1 0x3 PUSH1 0x0 DUP7 DUP2 MSTORE PUSH1 0x20 ADD SWAP1 DUP2 MSTORE PUSH1 0x20 ADD PUSH1 0x0 KECCAK256 PUSH1 0x0 DUP1 DUP3 ADD PUSH1 0x0 SWAP1 SSTORE PUSH1 0x1 DUP3 ADD PUSH1 0x0 PUSH2 0x100 EXP DUP2 SLOAD SWAP1 PUSH1 0xFF MUL NOT AND SWAP1 SSTORE PUSH1 0x2 DUP3 ADD PUSH1 0x0 PUSH2 0xC06 SWAP2 SWAP1 PUSH2 0xD7E JUMP JUMPDEST PUSH1 0x3 DUP3 ADD PUSH1 0x0 PUSH2 0x100 EXP DUP2 SLOAD SWAP1 PUSH20 0xFFFFFFFFFFFFFFFFFFFFFFFFFFFFFFFFFFFFFFFF MUL NOT AND SWAP1 SSTORE PUSH1 0x4 DUP3 ADD PUSH1 0x0 SWAP1 SSTORE POP POP POP JUMPDEST PUSH1 0x1 SWAP2 POP POP JUMPDEST SWAP3 SWAP2 POP POP JUMP JUMPDEST PUSH1 0x0 DUP1 PUSH1 0x3 PUSH1 0x0 DUP5 DUP2 MSTORE PUSH1 0x20 ADD SWAP1 DUP2 MSTORE PUSH1 0x20 ADD PUSH1 0x0 KECCAK256 SWAP1 POP PUSH1 0x0 JUMPDEST PUSH1 0x3 DUP2 LT ISZERO PUSH2 0xCB7 JUMPI DUP2 PUSH1 0x2 ADD DUP2 PUSH1 0x3 DUP2 LT PUSH2 0xC7F JUMPI PUSH2 0xC7E PUSH2 0x1168 JUMP JUMPDEST JUMPDEST PUSH1 0x20 SWAP2 DUP3 DUP3 DIV ADD SWAP2 SWAP1 MOD SWAP1 SLOAD SWAP1 PUSH2 0x100 EXP SWAP1 DIV PUSH1 0xFF AND PUSH2 0xCA4 JUMPI PUSH1 0x0 SWAP3 POP POP POP PUSH2 0xCBE JUMP JUMPDEST DUP1 DUP1 PUSH2 0xCAF SWAP1 PUSH2 0x1197 JUMP JUMPDEST SWAP2 POP POP PUSH2 0xC60 JUMP JUMPDEST POP PUSH1 0x1 SWAP2 POP POP JUMPDEST SWAP2 SWAP1 POP JUMP JUMPDEST DUP3 PUSH1 0x3 PUSH1 0x1F ADD PUSH1 0x20 SWAP1 DIV DUP2 ADD SWAP3 DUP3 ISZERO PUSH2 0xD4B JUMPI SWAP2 PUSH1 0x20 MUL DUP3 ADD PUSH1 0x0 JUMPDEST DUP4 DUP3 GT ISZERO PUSH2 0xD1C JUMPI DUP4 MLOAD DUP4 DUP3 PUSH2 0x100 EXP DUP2 SLOAD DUP2 PUSH1 0xFF MUL NOT AND SWAP1 DUP4 ISZERO ISZERO MUL OR SWAP1 SSTORE POP SWAP3 PUSH1 0x20 ADD SWAP3 PUSH1 0x1 ADD PUSH1 0x20 DUP2 PUSH1 0x0 ADD DIV SWAP3 DUP4 ADD SWAP3 PUSH1 0x1 SUB MUL PUSH2 0xCDF JUMP JUMPDEST DUP1 ISZERO PUSH2 0xD49 JUMPI DUP3 DUP2 PUSH2 0x100 EXP DUP2 SLOAD SWAP1 PUSH1 0xFF MUL NOT AND SWAP1 SSTORE PUSH1 0x1 ADD PUSH1 0x20 DUP2 PUSH1 0x0 ADD DIV SWAP3 DUP4 ADD SWAP3 PUSH1 0x1 SUB MUL PUSH2 0xD1C JUMP JUMPDEST POP JUMPDEST POP SWAP1 POP PUSH2 0xD58 SWAP2 SWAP1 PUSH2 0xD85 JUMP JUMPDEST POP SWAP1 JUMP JUMPDEST PUSH1 0x40 MLOAD DUP1 PUSH1 0x60 ADD PUSH1 0x40 MSTORE DUP1 PUSH1 0x3 SWAP1 PUSH1 0x20 DUP3 MUL DUP1 CALLDATASIZE DUP4 CALLDATACOPY DUP1 DUP3 ADD SWAP2 POP POP SWAP1 POP POP SWAP1 JUMP JUMPDEST POP PUSH1 0x0 SWAP1 SSTORE JUMP JUMPDEST JUMPDEST DUP1 DUP3 GT ISZERO PUSH2 0xD9E JUMPI PUSH1 0x0 DUP2 PUSH1 0x0 SWAP1 SSTORE POP PUSH1 0x1 ADD PUSH2 0xD86 JUMP JUMPDEST POP SWAP1 JUMP JUMPDEST PUSH1 0x0 DUP1 REVERT JUMPDEST PUSH1 0x0 DUP2 SWAP1 POP SWAP2 SWAP1 POP JUMP JUMPDEST PUSH2 0xDBA DUP2 PUSH2 0xDA7 JUMP JUMPDEST DUP2 EQ PUSH2 0xDC5 JUMPI PUSH1 0x0 DUP1 REVERT JUMPDEST POP JUMP JUMPDEST PUSH1 0x0 DUP2 CALLDATALOAD SWAP1 POP PUSH2 0xDD7 DUP2 PUSH2 0xDB1 JUMP JUMPDEST SWAP3 SWAP2 POP POP JUMP JUMPDEST PUSH1 0x0 DUP2 ISZERO ISZERO SWAP1 POP SWAP2 SWAP1 POP JUMP JUMPDEST PUSH2 0xDF2 DUP2 PUSH2 0xDDD JUMP JUMPDEST DUP2 EQ PUSH2 0xDFD JUMPI PUSH1 0x0 DUP1 REVERT JUMPDEST POP JUMP JUMPDEST PUSH1 0x0 DUP2 CALLDATALOAD SWAP1 POP PUSH2 0xE0F DUP2 PUSH2 0xDE9 JUMP JUMPDEST SWAP3 SWAP2 POP POP JUMP JUMPDEST PUSH1 0x0 DUP1 PUSH1 0x40 DUP4 DUP6 SUB SLT ISZERO PUSH2 0xE2C JUMPI PUSH2 0xE2B PUSH2 0xDA2 JUMP JUMPDEST JUMPDEST PUSH1 0x0 PUSH2 0xE3A DUP6 DUP3 DUP7 ADD PUSH2 0xDC8 JUMP JUMPDEST SWAP3 POP POP PUSH1 0x20 PUSH2 0xE4B DUP6 DUP3 DUP7 ADD PUSH2 0xE00 JUMP JUMPDEST SWAP2 POP POP SWAP3 POP SWAP3 SWAP1 POP JUMP JUMPDEST PUSH2 0xE5E DUP2 PUSH2 0xDA7 JUMP JUMPDEST DUP3 MSTORE POP POP JUMP JUMPDEST PUSH1 0x0 PUSH1 0x20 DUP3 ADD SWAP1 POP PUSH2 0xE79 PUSH1 0x0 DUP4 ADD DUP5 PUSH2 0xE55 JUMP JUMPDEST SWAP3 SWAP2 POP POP JUMP JUMPDEST PUSH1 0x0 PUSH20 0xFFFFFFFFFFFFFFFFFFFFFFFFFFFFFFFFFFFFFFFF DUP3 AND SWAP1 POP SWAP2 SWAP1 POP JUMP JUMPDEST PUSH1 0x0 PUSH2 0xEAA DUP3 PUSH2 0xE7F JUMP JUMPDEST SWAP1 POP SWAP2 SWAP1 POP JUMP JUMPDEST PUSH2 0xEBA DUP2 PUSH2 0xE9F JUMP JUMPDEST DUP2 EQ PUSH2 0xEC5 JUMPI PUSH1 0x0 DUP1 REVERT JUMPDEST POP JUMP JUMPDEST PUSH1 0x0 DUP2 CALLDATALOAD SWAP1 POP PUSH2 0xED7 DUP2 PUSH2 0xEB1 JUMP JUMPDEST SWAP3 SWAP2 POP POP JUMP JUMPDEST PUSH1 0x0 PUSH1 0x20 DUP3 DUP5 SUB SLT ISZERO PUSH2 0xEF3 JUMPI PUSH2 0xEF2 PUSH2 0xDA2 JUMP JUMPDEST JUMPDEST PUSH1 0x0 PUSH2 0xF01 DUP5 DUP3 DUP6 ADD PUSH2 0xEC8 JUMP JUMPDEST SWAP2 POP POP SWAP3 SWAP2 POP POP JUMP JUMPDEST PUSH2 0xF13 DUP2 PUSH2 0xDDD JUMP JUMPDEST DUP3 MSTORE POP POP JUMP JUMPDEST PUSH1 0x0 PUSH1 0x40 DUP3 ADD SWAP1 POP PUSH2 0xF2E PUSH1 0x0 DUP4 ADD DUP6 PUSH2 0xE55 JUMP JUMPDEST PUSH2 0xF3B PUSH1 0x20 DUP4 ADD DUP5 PUSH2 0xF0A JUMP JUMPDEST SWAP4 SWAP3 POP POP POP JUMP JUMPDEST PUSH1 0x0 PUSH1 0x20 DUP3 DUP5 SUB SLT ISZERO PUSH2 0xF58 JUMPI PUSH2 0xF57 PUSH2 0xDA2 JUMP JUMPDEST JUMPDEST PUSH1 0x0 PUSH2 0xF66 DUP5 DUP3 DUP6 ADD PUSH2 0xDC8 JUMP JUMPDEST SWAP2 POP POP SWAP3 SWAP2 POP POP JUMP JUMPDEST PUSH1 0x0 PUSH1 0x20 DUP3 ADD SWAP1 POP PUSH2 0xF84 PUSH1 0x0 DUP4 ADD DUP5 PUSH2 0xF0A JUMP JUMPDEST SWAP3 SWAP2 POP POP JUMP JUMPDEST PUSH1 0x0 DUP3 DUP3 MSTORE PUSH1 0x20 DUP3 ADD SWAP1 POP SWAP3 SWAP2 POP POP JUMP JUMPDEST PUSH32 0x506C61796572206D757374206A6F696E207468652067616D6520666972737400 PUSH1 0x0 DUP3 ADD MSTORE POP JUMP JUMPDEST PUSH1 0x0 PUSH2 0xFD1 PUSH1 0x1F DUP4 PUSH2 0xF8A JUMP JUMPDEST SWAP2 POP PUSH2 0xFDC DUP3 PUSH2 0xF9B JUMP JUMPDEST PUSH1 0x20 DUP3 ADD SWAP1 POP SWAP2 SWAP1 POP JUMP JUMPDEST PUSH1 0x0 PUSH1 0x20 DUP3 ADD SWAP1 POP DUP2 DUP2 SUB PUSH1 0x0 DUP4 ADD MSTORE PUSH2 0x1000 DUP2 PUSH2 0xFC4 JUMP JUMPDEST SWAP1 POP SWAP2 SWAP1 POP JUMP JUMPDEST PUSH32 0x506C617965722068617320616C726561647920706C6163656420746865206D61 PUSH1 0x0 DUP3 ADD MSTORE PUSH32 0x78696D756D206E756D626572206F662073686970730000000000000000000000 PUSH1 0x20 DUP3 ADD MSTORE POP JUMP JUMPDEST PUSH1 0x0 PUSH2 0x1063 PUSH1 0x35 DUP4 PUSH2 0xF8A JUMP JUMPDEST SWAP2 POP PUSH2 0x106E DUP3 PUSH2 0x1007 JUMP JUMPDEST PUSH1 0x40 DUP3 ADD SWAP1 POP SWAP2 SWAP1 POP JUMP JUMPDEST PUSH1 0x0 PUSH1 0x20 DUP3 ADD SWAP1 POP DUP2 DUP2 SUB PUSH1 0x0 DUP4 ADD MSTORE PUSH2 0x1092 DUP2 PUSH2 0x1056 JUMP JUMPDEST SWAP1 POP SWAP2 SWAP1 POP JUMP JUMPDEST PUSH32 0x496E76616C6964207368697020706F736974696F6E0000000000000000000000 PUSH1 0x0 DUP3 ADD MSTORE POP JUMP JUMPDEST PUSH1 0x0 PUSH2 0x10CF PUSH1 0x15 DUP4 PUSH2 0xF8A JUMP JUMPDEST SWAP2 POP PUSH2 0x10DA DUP3 PUSH2 0x1099 JUMP JUMPDEST PUSH1 0x20 DUP3 ADD SWAP1 POP SWAP2 SWAP1 POP JUMP JUMPDEST PUSH1 0x0 PUSH1 0x20 DUP3 ADD SWAP1 POP DUP2 DUP2 SUB PUSH1 0x0 DUP4 ADD MSTORE PUSH2 0x10FE DUP2 PUSH2 0x10C2 JUMP JUMPDEST SWAP1 POP SWAP2 SWAP1 POP JUMP JUMPDEST PUSH32 0x4E487B7100000000000000000000000000000000000000000000000000000000 PUSH1 0x0 MSTORE PUSH1 0x11 PUSH1 0x4 MSTORE PUSH1 0x24 PUSH1 0x0 REVERT JUMPDEST PUSH1 0x0 PUSH2 0x113F DUP3 PUSH2 0xDA7 JUMP JUMPDEST SWAP2 POP PUSH2 0x114A DUP4 PUSH2 0xDA7 JUMP JUMPDEST SWAP3 POP DUP3 DUP3 ADD SWAP1 POP DUP1 DUP3 GT ISZERO PUSH2 0x1162 JUMPI PUSH2 0x1161 PUSH2 0x1105 JUMP JUMPDEST JUMPDEST SWAP3 SWAP2 POP POP JUMP JUMPDEST PUSH32 0x4E487B7100000000000000000000000000000000000000000000000000000000 PUSH1 0x0 MSTORE PUSH1 0x32 PUSH1 0x4 MSTORE PUSH1 0x24 PUSH1 0x0 REVERT JUMPDEST PUSH1 0x0 PUSH2 0x11A2 DUP3 PUSH2 0xDA7 JUMP JUMPDEST SWAP2 POP PUSH32 0xFFFFFFFFFFFFFFFFFFFFFFFFFFFFFFFFFFFFFFFFFFFFFFFFFFFFFFFFFFFFFFFF DUP3 SUB PUSH2 0x11D4 JUMPI PUSH2 0x11D3 PUSH2 0x1105 JUMP JUMPDEST JUMPDEST PUSH1 0x1 DUP3 ADD SWAP1 POP SWAP2 SWAP1 POP JUMP JUMPDEST PUSH2 0x11E8 DUP2 PUSH2 0xE9F JUMP JUMPDEST DUP3 MSTORE POP POP JUMP JUMPDEST PUSH1 0x0 PUSH1 0x60 DUP3 ADD SWAP1 POP PUSH2 0x1203 PUSH1 0x0 DUP4 ADD DUP7 PUSH2 0x11DF JUMP JUMPDEST PUSH2 0x1210 PUSH1 0x20 DUP4 ADD DUP6 PUSH2 0xE55 JUMP JUMPDEST PUSH2 0x121D PUSH1 0x40 DUP4 ADD DUP5 PUSH2 0xF0A JUMP JUMPDEST SWAP5 SWAP4 POP POP POP POP JUMP JUMPDEST PUSH1 0x0 PUSH1 0xFF DUP3 AND SWAP1 POP SWAP2 SWAP1 POP JUMP JUMPDEST PUSH1 0x0 DUP2 SWAP1 POP SWAP2 SWAP1 POP JUMP JUMPDEST PUSH1 0x0 PUSH2 0x1257 PUSH2 0x1252 PUSH2 0x124D DUP5 PUSH2 0x1225 JUMP JUMPDEST PUSH2 0x1232 JUMP JUMPDEST PUSH2 0xDA7 JUMP JUMPDEST SWAP1 POP SWAP2 SWAP1 POP JUMP JUMPDEST PUSH2 0x1267 DUP2 PUSH2 0x123C JUMP JUMPDEST DUP3 MSTORE POP POP JUMP JUMPDEST PUSH1 0x0 PUSH1 0x60 DUP3 ADD SWAP1 POP PUSH2 0x1282 PUSH1 0x0 DUP4 ADD DUP7 PUSH2 0x11DF JUMP JUMPDEST PUSH2 0x128F PUSH1 0x20 DUP4 ADD DUP6 PUSH2 0xE55 JUMP JUMPDEST PUSH2 0x129C PUSH1 0x40 DUP4 ADD DUP5 PUSH2 0x125E JUMP JUMPDEST SWAP5 SWAP4 POP POP POP POP JUMP JUMPDEST PUSH1 0x0 DUP2 SWAP1 POP SWAP2 SWAP1 POP JUMP JUMPDEST PUSH1 0x0 PUSH2 0x12C9 PUSH2 0x12C4 PUSH2 0x12BF DUP5 PUSH2 0x12A4 JUMP JUMPDEST PUSH2 0x1232 JUMP JUMPDEST PUSH2 0xDA7 JUMP JUMPDEST SWAP1 POP SWAP2 SWAP1 POP JUMP JUMPDEST PUSH2 0x12D9 DUP2 PUSH2 0x12AE JUMP JUMPDEST DUP3 MSTORE POP POP JUMP JUMPDEST PUSH1 0x0 PUSH1 0x60 DUP3 ADD SWAP1 POP PUSH2 0x12F4 PUSH1 0x0 DUP4 ADD DUP7 PUSH2 0x11DF JUMP JUMPDEST PUSH2 0x1301 PUSH1 0x20 DUP4 ADD DUP6 PUSH2 0xE55 JUMP JUMPDEST PUSH2 0x130E PUSH1 0x40 DUP4 ADD DUP5 PUSH2 0x12D0 JUMP JUMPDEST SWAP5 SWAP4 POP POP POP POP JUMP JUMPDEST PUSH1 0x0 PUSH1 0x20 DUP3 ADD SWAP1 POP PUSH2 0x132B PUSH1 0x0 DUP4 ADD DUP5 PUSH2 0x11DF JUMP JUMPDEST SWAP3 SWAP2 POP POP JUMP JUMPDEST PUSH1 0x0 PUSH2 0x133C DUP3 PUSH2 0xDA7 JUMP JUMPDEST SWAP2 POP PUSH2 0x1347 DUP4 PUSH2 0xDA7 JUMP JUMPDEST SWAP3 POP DUP3 DUP3 MUL PUSH2 0x1355 DUP2 PUSH2 0xDA7 JUMP JUMPDEST SWAP2 POP DUP3 DUP3 DIV DUP5 EQ DUP4 ISZERO OR PUSH2 0x136C JUMPI PUSH2 0x136B PUSH2 0x1105 JUMP JUMPDEST JUMPDEST POP SWAP3 SWAP2 POP POP JUMP JUMPDEST PUSH1 0x0 PUSH2 0x137E DUP3 PUSH2 0xDA7 JUMP JUMPDEST SWAP2 POP PUSH2 0x1389 DUP4 PUSH2 0xDA7 JUMP JUMPDEST SWAP3 POP DUP3 DUP3 SUB SWAP1 POP DUP2 DUP2 GT ISZERO PUSH2 0x13A1 JUMPI PUSH2 0x13A0 PUSH2 0x1105 JUMP JUMPDEST JUMPDEST SWAP3 SWAP2 POP POP JUMP JUMPDEST PUSH32 0x4E487B7100000000000000000000000000000000000000000000000000000000 PUSH1 0x0 MSTORE PUSH1 0x12 PUSH1 0x4 MSTORE PUSH1 0x24 PUSH1 0x0 REVERT JUMPDEST PUSH1 0x0 PUSH2 0x13E1 DUP3 PUSH2 0xDA7 JUMP JUMPDEST SWAP2 POP PUSH2 0x13EC DUP4 PUSH2 0xDA7 JUMP JUMPDEST SWAP3 POP DUP3 PUSH2 0x13FC JUMPI PUSH2 0x13FB PUSH2 0x13A7 JUMP JUMPDEST JUMPDEST DUP3 DUP3 MOD SWAP1 POP SWAP3 SWAP2 POP POP JUMP JUMPDEST PUSH1 0x0 PUSH1 0x40 DUP3 ADD SWAP1 POP PUSH2 0x141C PUSH1 0x0 DUP4 ADD DUP6 PUSH2 0x11DF JUMP JUMPDEST PUSH2 0x1429 PUSH1 0x20 DUP4 ADD DUP5 PUSH2 0xE55 JUMP JUMPDEST SWAP4 SWAP3 POP POP POP JUMP INVALID LOG2 PUSH5 0x6970667358 0x22 SLT KECCAK256 PUSH9 0xD451EE3013D6B3C2E7 0xDD 0xB3 SWAP11 CALLDATASIZE 0xE1 DUP7 LOG0 PREVRANDAO 0xCB 0xCE 0xB3 CALLDATALOAD 0xD8 SWAP2 0x21 SLT SWAP11 0x24 0x24 0xCF SWAP16 MSIZE PUSH5 0x736F6C6343 STOP ADDMOD SGT STOP CALLER "},"methodIdentifiers":{"GRID_SIZE()":"7fc4eda8","MAX_SHIPS_PER_PLAYER()":"e28c2b46","SHIP_SIZE()":"23ce9e94","Shoot(uint256)":"f565ee8d","placeAShip(uint256,bool)":"15b6fc48","players(address)":"e2eb41ff"}}}}}